{
  "_format": "hh-sol-artifact-1",
  "contractName": "MadHatterOrg",
  "sourceName": "contracts/MadHatter/Org/MadHatterOrg.sol",
  "abi": [
    {
      "inputs": [],
      "name": "AdminOnly",
      "type": "error"
    },
    {
      "inputs": [],
      "name": "BadgeDoesNotExist",
      "type": "error"
    },
    {
      "inputs": [],
      "name": "BadgeExists",
      "type": "error"
    },
    {
      "inputs": [],
      "name": "BadgesAreBoundToAddress",
      "type": "error"
    },
    {
      "anonymous": false,
      "inputs": [
        {
          "indexed": true,
          "internalType": "address",
          "name": "account",
          "type": "address"
        },
        {
          "indexed": true,
          "internalType": "address",
          "name": "operator",
          "type": "address"
        },
        {
          "indexed": false,
          "internalType": "bool",
          "name": "approved",
          "type": "bool"
        }
      ],
      "name": "ApprovalForAll",
      "type": "event"
    },
    {
      "anonymous": false,
      "inputs": [
        {
          "indexed": false,
          "internalType": "uint8",
          "name": "version",
          "type": "uint8"
        }
      ],
      "name": "Initialized",
      "type": "event"
    },
    {
      "anonymous": false,
      "inputs": [
        {
          "indexed": true,
          "internalType": "address",
          "name": "previousOwner",
          "type": "address"
        },
        {
          "indexed": true,
          "internalType": "address",
          "name": "newOwner",
          "type": "address"
        }
      ],
      "name": "OwnershipTransferred",
      "type": "event"
    },
    {
      "anonymous": false,
      "inputs": [
        {
          "indexed": true,
          "internalType": "address",
          "name": "operator",
          "type": "address"
        },
        {
          "indexed": true,
          "internalType": "address",
          "name": "from",
          "type": "address"
        },
        {
          "indexed": true,
          "internalType": "address",
          "name": "to",
          "type": "address"
        },
        {
          "indexed": false,
          "internalType": "uint256[]",
          "name": "ids",
          "type": "uint256[]"
        },
        {
          "indexed": false,
          "internalType": "uint256[]",
          "name": "values",
          "type": "uint256[]"
        }
      ],
      "name": "TransferBatch",
      "type": "event"
    },
    {
      "anonymous": false,
      "inputs": [
        {
          "indexed": true,
          "internalType": "address",
          "name": "operator",
          "type": "address"
        },
        {
          "indexed": true,
          "internalType": "address",
          "name": "from",
          "type": "address"
        },
        {
          "indexed": true,
          "internalType": "address",
          "name": "to",
          "type": "address"
        },
        {
          "indexed": false,
          "internalType": "uint256",
          "name": "id",
          "type": "uint256"
        },
        {
          "indexed": false,
          "internalType": "uint256",
          "name": "value",
          "type": "uint256"
        }
      ],
      "name": "TransferSingle",
      "type": "event"
    },
    {
      "anonymous": false,
      "inputs": [
        {
          "indexed": false,
          "internalType": "string",
          "name": "value",
          "type": "string"
        },
        {
          "indexed": true,
          "internalType": "uint256",
          "name": "id",
          "type": "uint256"
        }
      ],
      "name": "URI",
      "type": "event"
    },
    {
      "inputs": [
        {
          "internalType": "address",
          "name": "",
          "type": "address"
        }
      ],
      "name": "admins",
      "outputs": [
        {
          "internalType": "bool",
          "name": "",
          "type": "bool"
        }
      ],
      "stateMutability": "view",
      "type": "function"
    },
    {
      "inputs": [
        {
          "internalType": "uint256",
          "name": "_badgeId",
          "type": "uint256"
        }
      ],
      "name": "badgeImage",
      "outputs": [
        {
          "internalType": "string",
          "name": "imageString",
          "type": "string"
        }
      ],
      "stateMutability": "view",
      "type": "function"
    },
    {
      "inputs": [
        {
          "internalType": "uint256",
          "name": "_badgeId",
          "type": "uint256"
        }
      ],
      "name": "badgeTraits",
      "outputs": [
        {
          "internalType": "string",
          "name": "traitString",
          "type": "string"
        }
      ],
      "stateMutability": "view",
      "type": "function"
    },
    {
      "inputs": [
        {
          "internalType": "uint256",
          "name": "",
          "type": "uint256"
        }
      ],
      "name": "badges",
      "outputs": [
        {
          "internalType": "string",
          "name": "title",
          "type": "string"
        },
        {
          "internalType": "string",
          "name": "description",
          "type": "string"
        },
        {
          "internalType": "string",
          "name": "imageHash",
          "type": "string"
        }
      ],
      "stateMutability": "view",
      "type": "function"
    },
    {
      "inputs": [
        {
          "internalType": "address",
          "name": "account",
          "type": "address"
        },
        {
          "internalType": "uint256",
          "name": "id",
          "type": "uint256"
        }
      ],
      "name": "balanceOf",
      "outputs": [
        {
          "internalType": "uint256",
          "name": "",
          "type": "uint256"
        }
      ],
      "stateMutability": "view",
      "type": "function"
    },
    {
      "inputs": [
        {
          "internalType": "address[]",
          "name": "accounts",
          "type": "address[]"
        },
        {
          "internalType": "uint256[]",
          "name": "ids",
          "type": "uint256[]"
        }
      ],
      "name": "balanceOfBatch",
      "outputs": [
        {
          "internalType": "uint256[]",
          "name": "",
          "type": "uint256[]"
        }
      ],
      "stateMutability": "view",
      "type": "function"
    },
    {
      "inputs": [
        {
          "internalType": "uint256",
          "name": "_badgeId",
          "type": "uint256"
        }
      ],
      "name": "burnBadge",
      "outputs": [],
      "stateMutability": "nonpayable",
      "type": "function"
    },
    {
      "inputs": [],
      "name": "contractURI",
      "outputs": [
        {
          "internalType": "string",
          "name": "",
          "type": "string"
        }
      ],
      "stateMutability": "view",
      "type": "function"
    },
    {
      "inputs": [],
      "name": "contractURIHash",
      "outputs": [
        {
          "internalType": "string",
          "name": "",
          "type": "string"
        }
      ],
      "stateMutability": "view",
      "type": "function"
    },
    {
      "inputs": [
        {
          "internalType": "uint256",
          "name": "_badgeId",
          "type": "uint256"
        },
        {
          "internalType": "string",
          "name": "_title",
          "type": "string"
        },
        {
          "internalType": "string",
          "name": "_description",
          "type": "string"
        },
        {
          "internalType": "string",
          "name": "_imageHash",
          "type": "string"
        }
      ],
      "name": "createBadgeType",
      "outputs": [],
      "stateMutability": "nonpayable",
      "type": "function"
    },
    {
      "inputs": [
        {
          "internalType": "string",
          "name": "_baseURI",
          "type": "string"
        },
        {
          "internalType": "string",
          "name": "_contractURI",
          "type": "string"
        },
        {
          "internalType": "string",
          "name": "_collectionDescription",
          "type": "string"
        },
        {
          "components": [
            {
              "internalType": "string",
              "name": "title",
              "type": "string"
            },
            {
              "internalType": "string",
              "name": "description",
              "type": "string"
            },
            {
              "internalType": "string",
              "name": "imageHash",
              "type": "string"
            }
          ],
          "internalType": "struct MadHatterOrg.Badge[]",
          "name": "_badges",
          "type": "tuple[]"
        }
      ],
      "name": "initialize",
      "outputs": [],
      "stateMutability": "nonpayable",
      "type": "function"
    },
    {
      "inputs": [
        {
          "internalType": "address",
          "name": "account",
          "type": "address"
        },
        {
          "internalType": "address",
          "name": "operator",
          "type": "address"
        }
      ],
      "name": "isApprovedForAll",
      "outputs": [
        {
          "internalType": "bool",
          "name": "",
          "type": "bool"
        }
      ],
      "stateMutability": "view",
      "type": "function"
    },
    {
      "inputs": [
        {
          "internalType": "address",
          "name": "_to",
          "type": "address"
        },
        {
          "internalType": "uint256",
          "name": "_badgeId",
          "type": "uint256"
        }
      ],
      "name": "mintBadge",
      "outputs": [],
      "stateMutability": "nonpayable",
      "type": "function"
    },
    {
      "inputs": [
        {
          "internalType": "address[]",
          "name": "_addresses",
          "type": "address[]"
        },
        {
          "internalType": "uint256",
          "name": "_badgeId",
          "type": "uint256"
        }
      ],
      "name": "mintBadgeBundle",
      "outputs": [],
      "stateMutability": "nonpayable",
      "type": "function"
    },
    {
      "inputs": [],
      "name": "owner",
      "outputs": [
        {
          "internalType": "address",
          "name": "",
          "type": "address"
        }
      ],
      "stateMutability": "view",
      "type": "function"
    },
    {
      "inputs": [],
      "name": "renounceOwnership",
      "outputs": [],
      "stateMutability": "nonpayable",
      "type": "function"
    },
    {
      "inputs": [
        {
          "internalType": "address",
          "name": "_from",
          "type": "address"
        },
        {
          "internalType": "uint256",
          "name": "_badgeId",
          "type": "uint256"
        }
      ],
      "name": "revokeBadge",
      "outputs": [],
      "stateMutability": "nonpayable",
      "type": "function"
    },
    {
      "inputs": [
        {
          "internalType": "address",
          "name": "from",
          "type": "address"
        },
        {
          "internalType": "address",
          "name": "to",
          "type": "address"
        },
        {
          "internalType": "uint256[]",
          "name": "ids",
          "type": "uint256[]"
        },
        {
          "internalType": "uint256[]",
          "name": "amounts",
          "type": "uint256[]"
        },
        {
          "internalType": "bytes",
          "name": "data",
          "type": "bytes"
        }
      ],
      "name": "safeBatchTransferFrom",
      "outputs": [],
      "stateMutability": "nonpayable",
      "type": "function"
    },
    {
      "inputs": [
        {
          "internalType": "address",
          "name": "from",
          "type": "address"
        },
        {
          "internalType": "address",
          "name": "to",
          "type": "address"
        },
        {
          "internalType": "uint256",
          "name": "id",
          "type": "uint256"
        },
        {
          "internalType": "uint256",
          "name": "amount",
          "type": "uint256"
        },
        {
          "internalType": "bytes",
          "name": "data",
          "type": "bytes"
        }
      ],
      "name": "safeTransferFrom",
      "outputs": [],
      "stateMutability": "nonpayable",
      "type": "function"
    },
    {
      "inputs": [
        {
          "internalType": "address",
          "name": "operator",
          "type": "address"
        },
        {
          "internalType": "bool",
          "name": "approved",
          "type": "bool"
        }
      ],
      "name": "setApprovalForAll",
      "outputs": [],
      "stateMutability": "nonpayable",
      "type": "function"
    },
    {
      "inputs": [
        {
          "internalType": "string",
          "name": "_contractURIHash",
          "type": "string"
        }
      ],
      "name": "setContractURI",
      "outputs": [],
      "stateMutability": "nonpayable",
      "type": "function"
    },
    {
      "inputs": [
        {
          "internalType": "bytes4",
          "name": "interfaceId",
          "type": "bytes4"
        }
      ],
      "name": "supportsInterface",
      "outputs": [
        {
          "internalType": "bool",
          "name": "",
          "type": "bool"
        }
      ],
      "stateMutability": "view",
      "type": "function"
    },
    {
      "inputs": [
        {
          "internalType": "address",
          "name": "newOwner",
          "type": "address"
        }
      ],
      "name": "transferOwnership",
      "outputs": [],
      "stateMutability": "nonpayable",
      "type": "function"
    },
    {
      "inputs": [
        {
          "internalType": "address",
          "name": "_address",
          "type": "address"
        },
        {
          "internalType": "bool",
          "name": "_isAdmin",
          "type": "bool"
        }
      ],
      "name": "updateAdminRole",
      "outputs": [],
      "stateMutability": "nonpayable",
      "type": "function"
    },
    {
      "inputs": [
        {
          "internalType": "uint256",
          "name": "_badgeId",
          "type": "uint256"
        },
        {
          "internalType": "string",
          "name": "_title",
          "type": "string"
        },
        {
          "internalType": "string",
          "name": "_description",
          "type": "string"
        },
        {
          "internalType": "string",
          "name": "_imageHash",
          "type": "string"
        }
      ],
      "name": "updateBadgeType",
      "outputs": [],
      "stateMutability": "nonpayable",
      "type": "function"
    },
    {
      "inputs": [
        {
          "internalType": "uint256",
          "name": "_badgeId",
          "type": "uint256"
        }
      ],
      "name": "uri",
      "outputs": [
        {
          "internalType": "string",
          "name": "badgeURI",
          "type": "string"
        }
      ],
      "stateMutability": "view",
      "type": "function"
    }
  ],
  "bytecode": "0x608060405234801561001057600080fd5b50612ae2806100206000396000f3fe608060405234801561001057600080fd5b50600436106101ad5760003560e01c80638da5cb5b116100ee578063c75a752b11610097578063e8a3d48511610071578063e8a3d4851461039f578063e985e9c5146103a7578063f242432a146103ba578063f2fde38b146103c857600080fd5b8063c75a752b14610366578063e2f54dcb14610379578063e42bff661461038c57600080fd5b8063a22cb465116100c8578063a22cb4651461033d578063c25373721461034b578063c42179321461035e57600080fd5b80638da5cb5b146102ed578063938e3d7b1461030857806398e36d8b1461031b57600080fd5b80634e1273f41161015b578063715018a611610135578063715018a6146102ac57806374e8dc2c146102b45780637b5455df146102c75780638447792a146102da57600080fd5b80634e1273f41461026657806355de28ae146102865780635dbfd1d51461029957600080fd5b80632eb2c2d61161018c5780632eb2c2d61461021b5780633d7c8d8e14610230578063429b62e51461024357600080fd5b8062fdd58e146101b257806301ffc9a7146101d85780630e89341c146101fb575b600080fd5b6101c56101c0366004611d61565b6103db565b6040519081526020015b60405180910390f35b6101eb6101e6366004611da1565b610489565b60405190151581526020016101cf565b61020e610209366004611dc5565b6104c7565b6040516101cf9190611e36565b61022e610229366004611fbb565b610746565b005b61020e61023e366004611dc5565b610778565b6101eb610251366004612065565b60cb6020526000908152604090205460ff1681565b6102796102743660046120ed565b6107f1565b6040516101cf9190612151565b61022e610294366004611dc5565b61092f565b61020e6102a7366004611dc5565b610946565b61022e6109a4565b61022e6102c23660046121de565b6109b8565b61022e6102d5366004611d61565b610b5c565b61022e6102e8366004612282565b610b9f565b6033546040516001600160a01b0390911681526020016101cf565b61022e61031636600461242e565b610d9d565b61032e610329366004611dc5565b610db8565b6040516101cf9392919061246b565b61022e6102293660046124ae565b61022e6103593660046124ae565b610f72565b61020e610fa5565b61022e6103743660046121de565b611033565b61022e6103873660046124ea565b611181565b61022e61039a366004611d61565b611247565b61020e6112d5565b6101eb6103b536600461252f565b6112fd565b61022e610229366004612562565b61022e6103d6366004612065565b61132f565b60006001600160a01b03831661045e5760405162461bcd60e51b815260206004820152602a60248201527f455243313135353a2061646472657373207a65726f206973206e6f742061207660448201527f616c6964206f776e65720000000000000000000000000000000000000000000060648201526084015b60405180910390fd5b5060008181526097602090815260408083206001600160a01b03861684529091529020545b92915050565b60006001600160e01b031982167fe8a3d4850000000000000000000000000000000000000000000000000000000014806104835750610483826113bc565b600081815260cc60205260409020805460609183916104e5906125c7565b151590506105065760405163a32ee77b60e01b815260040160405180910390fd5b600083815260cc602052604080822081516060810190925280548290829061052d906125c7565b80601f0160208091040260200160405190810160405280929190818152602001828054610559906125c7565b80156105a65780601f1061057b576101008083540402835291602001916105a6565b820191906000526020600020905b81548152906001019060200180831161058957829003601f168201915b505050505081526020016001820180546105bf906125c7565b80601f01602080910402602001604051908101604052809291908181526020018280546105eb906125c7565b80156106385780601f1061060d57610100808354040283529160200191610638565b820191906000526020600020905b81548152906001019060200180831161061b57829003601f168201915b50505050508152602001600282018054610651906125c7565b80601f016020809104026020016040519081016040528092919081815260200182805461067d906125c7565b80156106ca5780601f1061069f576101008083540402835291602001916106ca565b820191906000526020600020905b8154815290600101906020018083116106ad57829003601f168201915b505050505081525050905061071e8160000151826020015160ca6106ed88610778565b6106f689610946565b60405160200161070a959493929190612696565b604051602081830303815290604052611457565b60405160200161072e91906127ca565b60405160208183030381529060405292505050919050565b6040517f399a360000000000000000000000000000000000000000000000000000000000815260040160405180910390fd5b600081815260cc6020526040902080546060918391610796906125c7565b151590506107b75760405163a32ee77b60e01b815260040160405180910390fd5b600083815260cc602090815260409182902091516107d992600201910161280f565b60405160208183030381529060405291505b50919050565b6060815183511461086a5760405162461bcd60e51b815260206004820152602960248201527f455243313135353a206163636f756e747320616e6420696473206c656e67746860448201527f206d69736d6174636800000000000000000000000000000000000000000000006064820152608401610455565b6000835167ffffffffffffffff81111561088657610886611e49565b6040519080825280602002602001820160405280156108af578160200160208202803683370190505b50905060005b8451811015610927576108fa8582815181106108d3576108d3612841565b60200260200101518583815181106108ed576108ed612841565b60200260200101516103db565b82828151811061090c5761090c612841565b60209081029190910101526109208161286d565b90506108b5565b509392505050565b610943338261093e33856103db565b6115f4565b50565b600081815260cc6020526040902080546060918391610964906125c7565b151590506109855760405163a32ee77b60e01b815260040160405180910390fd5b600083815260cc602090815260409182902091516107d9929101612888565b6109ac6117ab565b6109b66000611805565b565b33600090815260cb602052604090205460ff166109e857604051633057182d60e21b815260040160405180910390fd5b600087815260cc602052604090208054889190610a04906125c7565b159050610a3d576040517fed96c68100000000000000000000000000000000000000000000000000000000815260040160405180910390fd5b604051806060016040528088888080601f016020809104026020016040519081016040528093929190818152602001838380828437600092019190915250505090825250604080516020601f890181900481028201810190925287815291810191908890889081908401838280828437600092019190915250505090825250604080516020601f87018190048102820181019092528581529181019190869086908190840183828082843760009201829052509390945250508a815260cc6020908152604090912083518051919350610b1a928492910190611cac565b506020828101518051610b339260018501920190611cac565b5060408201518051610b4f916002840191602090910190611cac565b5050505050505050505050565b33600090815260cb602052604090205460ff16610b8c57604051633057182d60e21b815260040160405180910390fd5b610b9b828261093e85856103db565b5050565b600054610100900460ff1615808015610bbf5750600054600160ff909116105b80610bd95750303b158015610bd9575060005460ff166001145b610c4b5760405162461bcd60e51b815260206004820152602e60248201527f496e697469616c697a61626c653a20636f6e747261637420697320616c72656160448201527f647920696e697469616c697a65640000000000000000000000000000000000006064820152608401610455565b6000805460ff191660011790558015610c6e576000805461ff0019166101001790555b610c778561186f565b8351610c8a9060c9906020870190611cac565b508251610c9e9060ca906020860190611cac565b5033600090815260cb60205260408120805460ff191660011790555b8251811015610d4f57828181518110610cd557610cd5612841565b602090810291909101810151600083815260cc8352604090208151805192939192610d039284920190611cac565b506020828101518051610d1c9260018501920190611cac565b5060408201518051610d38916002840191602090910190611cac565b509050508080610d479061286d565b915050610cba565b508015610d96576000805461ff0019169055604051600181527f7f26b83ff96e1f2b6a682f133852f6798a09c465da95921460cefb38474024989060200160405180910390a15b5050505050565b610da56117ab565b8051610b9b9060c9906020840190611cac565b60cc60205260009081526040902080548190610dd3906125c7565b80601f0160208091040260200160405190810160405280929190818152602001828054610dff906125c7565b8015610e4c5780601f10610e2157610100808354040283529160200191610e4c565b820191906000526020600020905b815481529060010190602001808311610e2f57829003601f168201915b505050505090806001018054610e61906125c7565b80601f0160208091040260200160405190810160405280929190818152602001828054610e8d906125c7565b8015610eda5780601f10610eaf57610100808354040283529160200191610eda565b820191906000526020600020905b815481529060010190602001808311610ebd57829003601f168201915b505050505090806002018054610eef906125c7565b80601f0160208091040260200160405190810160405280929190818152602001828054610f1b906125c7565b8015610f685780601f10610f3d57610100808354040283529160200191610f68565b820191906000526020600020905b815481529060010190602001808311610f4b57829003601f168201915b5050505050905083565b610f7a6117ab565b6001600160a01b0391909116600090815260cb60205260409020805460ff1916911515919091179055565b60c98054610fb2906125c7565b80601f0160208091040260200160405190810160405280929190818152602001828054610fde906125c7565b801561102b5780601f106110005761010080835404028352916020019161102b565b820191906000526020600020905b81548152906001019060200180831161100e57829003601f168201915b505050505081565b33600090815260cb602052604090205460ff1661106357604051633057182d60e21b815260040160405180910390fd5b604051806060016040528087878080601f016020809104026020016040519081016040528093929190818152602001838380828437600092019190915250505090825250604080516020601f880181900481028201810190925286815291810191908790879081908401838280828437600092019190915250505090825250604080516020601f860181900481028201810190925284815291810191908590859081908401838280828437600092018290525093909452505089815260cc6020908152604090912083518051919350611140928492910190611cac565b5060208281015180516111599260018501920190611cac565b5060408201518051611175916002840191602090910190611cac565b50505050505050505050565b33600090815260cb602052604090205460ff166111b157604051633057182d60e21b815260040160405180910390fd5b600081815260cc6020526040902080548291906111cd906125c7565b151590506111ee5760405163a32ee77b60e01b815260040160405180910390fd5b60005b83518110156112415761122f84828151811061120f5761120f612841565b6020026020010151846001604051806020016040528060008152506118e3565b806112398161286d565b9150506111f1565b50505050565b33600090815260cb602052604090205460ff1661127757604051633057182d60e21b815260040160405180910390fd5b600081815260cc602052604090208054829190611293906125c7565b151590506112b45760405163a32ee77b60e01b815260040160405180910390fd5b6112d083836001604051806020016040528060008152506118e3565b505050565b606060c96040516020016112e9919061280f565b604051602081830303815290604052905090565b6001600160a01b038116600090815260cb602052604081205460ff161561132657506001610483565b50600092915050565b6113376117ab565b6001600160a01b0381166113b35760405162461bcd60e51b815260206004820152602660248201527f4f776e61626c653a206e6577206f776e657220697320746865207a65726f206160448201527f64647265737300000000000000000000000000000000000000000000000000006064820152608401610455565b61094381611805565b60006001600160e01b031982167fd9b67a2600000000000000000000000000000000000000000000000000000000148061141f57506001600160e01b031982167f0e89341c00000000000000000000000000000000000000000000000000000000145b8061048357507f01ffc9a7000000000000000000000000000000000000000000000000000000006001600160e01b0319831614610483565b606081516000141561147757505060408051602081019091526000815290565b6000604051806060016040528060408152602001612a6d60409139905060006003845160026114a6919061290d565b6114b09190612925565b6114bb906004612947565b905060006114ca82602061290d565b67ffffffffffffffff8111156114e2576114e2611e49565b6040519080825280601f01601f19166020018201604052801561150c576020820181803683370190505b509050818152600183018586518101602084015b81831015611578576003830192508251603f8160121c168501518253600182019150603f81600c1c168501518253600182019150603f8160061c168501518253600182019150603f8116850151825350600101611520565b60038951066001811461159257600281146115be576115e6565b7f3d3d0000000000000000000000000000000000000000000000000000000000006001198301526115e6565b7f3d000000000000000000000000000000000000000000000000000000000000006000198301525b509398975050505050505050565b6001600160a01b0383166116705760405162461bcd60e51b815260206004820152602360248201527f455243313135353a206275726e2066726f6d20746865207a65726f206164647260448201527f65737300000000000000000000000000000000000000000000000000000000006064820152608401610455565b33600061167c84611a0c565b9050600061168984611a0c565b6040805160208082018352600091829052888252609781528282206001600160a01b038b168352905220549091508481101561172c5760405162461bcd60e51b8152602060048201526024808201527f455243313135353a206275726e20616d6f756e7420657863656564732062616c60448201527f616e6365000000000000000000000000000000000000000000000000000000006064820152608401610455565b60008681526097602090815260408083206001600160a01b038b81168086529184528285208a8703905582518b81529384018a90529092908816917fc3d58168c5ae7397731d063d5bbf3d657854427343f4c083240f7aacaa2d0f62910160405180910390a46040805160208101909152600090525b50505050505050565b6033546001600160a01b031633146109b65760405162461bcd60e51b815260206004820181905260248201527f4f776e61626c653a2063616c6c6572206973206e6f7420746865206f776e65726044820152606401610455565b603380546001600160a01b038381167fffffffffffffffffffffffff0000000000000000000000000000000000000000831681179093556040519116919082907f8be0079c531659141344cd1fd0a4f28419497f9722a3daafe3b4186f6b6457e090600090a35050565b600054610100900460ff166118da5760405162461bcd60e51b815260206004820152602b60248201527f496e697469616c697a61626c653a20636f6e7472616374206973206e6f74206960448201526a6e697469616c697a696e6760a81b6064820152608401610455565b61094381611a5f565b6001600160a01b03841661195f5760405162461bcd60e51b815260206004820152602160248201527f455243313135353a206d696e7420746f20746865207a65726f2061646472657360448201527f73000000000000000000000000000000000000000000000000000000000000006064820152608401610455565b33600061196b85611a0c565b9050600061197885611a0c565b905060008681526097602090815260408083206001600160a01b038b168452909152812080548792906119ac90849061290d565b909155505060408051878152602081018790526001600160a01b03808a1692600092918716917fc3d58168c5ae7397731d063d5bbf3d657854427343f4c083240f7aacaa2d0f62910160405180910390a46117a283600089898989611ad3565b60408051600180825281830190925260609160009190602080830190803683370190505090508281600081518110611a4657611a46612841565b602090810291909101015292915050565b505050505050565b600054610100900460ff16611aca5760405162461bcd60e51b815260206004820152602b60248201527f496e697469616c697a61626c653a20636f6e7472616374206973206e6f74206960448201526a6e697469616c697a696e6760a81b6064820152608401610455565b61094381611c9d565b6001600160a01b0384163b15611a575760405163f23a6e6160e01b81526001600160a01b0385169063f23a6e6190611b179089908990889088908890600401612966565b602060405180830381600087803b158015611b3157600080fd5b505af1925050508015611b61575060408051601f3d908101601f19168201909252611b5e918101906129a9565b60015b611c1757611b6d6129c6565b806308c379a01415611ba75750611b826129e2565b80611b8d5750611ba9565b8060405162461bcd60e51b81526004016104559190611e36565b505b60405162461bcd60e51b815260206004820152603460248201527f455243313135353a207472616e7366657220746f206e6f6e204552433131353560448201527f526563656976657220696d706c656d656e7465720000000000000000000000006064820152608401610455565b6001600160e01b0319811663f23a6e6160e01b146117a25760405162461bcd60e51b815260206004820152602860248201527f455243313135353a204552433131353552656365697665722072656a6563746560448201527f6420746f6b656e730000000000000000000000000000000000000000000000006064820152608401610455565b8051610b9b9060999060208401905b828054611cb8906125c7565b90600052602060002090601f016020900481019282611cda5760008555611d20565b82601f10611cf357805160ff1916838001178555611d20565b82800160010185558215611d20579182015b82811115611d20578251825591602001919060010190611d05565b50611d2c929150611d30565b5090565b5b80821115611d2c5760008155600101611d31565b80356001600160a01b0381168114611d5c57600080fd5b919050565b60008060408385031215611d7457600080fd5b611d7d83611d45565b946020939093013593505050565b6001600160e01b03198116811461094357600080fd5b600060208284031215611db357600080fd5b8135611dbe81611d8b565b9392505050565b600060208284031215611dd757600080fd5b5035919050565b60005b83811015611df9578181015183820152602001611de1565b838111156112415750506000910152565b60008151808452611e22816020860160208601611dde565b601f01601f19169290920160200192915050565b602081526000611dbe6020830184611e0a565b634e487b7160e01b600052604160045260246000fd5b6060810181811067ffffffffffffffff82111715611e7f57611e7f611e49565b60405250565b601f8201601f1916810167ffffffffffffffff81118282101715611eab57611eab611e49565b6040525050565b600067ffffffffffffffff821115611ecc57611ecc611e49565b5060051b60200190565b600082601f830112611ee757600080fd5b81356020611ef482611eb2565b604051611f018282611e85565b83815260059390931b8501820192828101915086841115611f2157600080fd5b8286015b84811015611f3c5780358352918301918301611f25565b509695505050505050565b600082601f830112611f5857600080fd5b813567ffffffffffffffff811115611f7257611f72611e49565b604051611f89601f8301601f191660200182611e85565b818152846020838601011115611f9e57600080fd5b816020850160208301376000918101602001919091529392505050565b600080600080600060a08688031215611fd357600080fd5b611fdc86611d45565b9450611fea60208701611d45565b9350604086013567ffffffffffffffff8082111561200757600080fd5b61201389838a01611ed6565b9450606088013591508082111561202957600080fd5b61203589838a01611ed6565b9350608088013591508082111561204b57600080fd5b5061205888828901611f47565b9150509295509295909350565b60006020828403121561207757600080fd5b611dbe82611d45565b600082601f83011261209157600080fd5b8135602061209e82611eb2565b6040516120ab8282611e85565b83815260059390931b85018201928281019150868411156120cb57600080fd5b8286015b84811015611f3c576120e081611d45565b83529183019183016120cf565b6000806040838503121561210057600080fd5b823567ffffffffffffffff8082111561211857600080fd5b61212486838701612080565b9350602085013591508082111561213a57600080fd5b5061214785828601611ed6565b9150509250929050565b6020808252825182820181905260009190848201906040850190845b818110156121895783518352928401929184019160010161216d565b50909695505050505050565b60008083601f8401126121a757600080fd5b50813567ffffffffffffffff8111156121bf57600080fd5b6020830191508360208285010111156121d757600080fd5b9250929050565b60008060008060008060006080888a0312156121f957600080fd5b87359650602088013567ffffffffffffffff8082111561221857600080fd5b6122248b838c01612195565b909850965060408a013591508082111561223d57600080fd5b6122498b838c01612195565b909650945060608a013591508082111561226257600080fd5b5061226f8a828b01612195565b989b979a50959850939692959293505050565b6000806000806080858703121561229857600080fd5b67ffffffffffffffff80863511156122af57600080fd5b6122bc8787358801611f47565b94506020860135818111156122d057600080fd5b6122dc88828901611f47565b9450506040860135818111156122f157600080fd5b6122fd88828901611f47565b93505060608601358181111561231257600080fd5b8601601f8101881361232357600080fd5b61232d8135611eb2565b60405161233a8282611e85565b82358082526020808301935060059190911b8401018a81111561235c57600080fd5b602084015b8181101561241c57858135111561237757600080fd5b803585016060818e03601f1901121561238f57600080fd5b60405161239b81611e5f565b6020820135888111156123ad57600080fd5b6123bc8f602083860101611f47565b8252506040820135888111156123d157600080fd5b6123e08f602083860101611f47565b6020830152506060820135888111156123f857600080fd5b6124078f602083860101611f47565b60408301525085525060209384019301612361565b50508094505050505092959194509250565b60006020828403121561244057600080fd5b813567ffffffffffffffff81111561245757600080fd5b61246384828501611f47565b949350505050565b60608152600061247e6060830186611e0a565b82810360208401526124908186611e0a565b905082810360408401526124a48185611e0a565b9695505050505050565b600080604083850312156124c157600080fd5b6124ca83611d45565b9150602083013580151581146124df57600080fd5b809150509250929050565b600080604083850312156124fd57600080fd5b823567ffffffffffffffff81111561251457600080fd5b61252085828601612080565b95602094909401359450505050565b6000806040838503121561254257600080fd5b61254b83611d45565b915061255960208401611d45565b90509250929050565b600080600080600060a0868803121561257a57600080fd5b61258386611d45565b945061259160208701611d45565b93506040860135925060608601359150608086013567ffffffffffffffff8111156125bb57600080fd5b61205888828901611f47565b600181811c908216806125db57607f821691505b602082108114156107eb57634e487b7160e01b600052602260045260246000fd5b8054600090600181811c908083168061261657607f831692505b602080841082141561263857634e487b7160e01b600052602260045260246000fd5b81801561264c576001811461265d5761268a565b60ff1986168952848901965061268a565b60008881526020902060005b868110156126825781548b820152908501908301612669565b505084890196505b50505050505092915050565b7f7b226e616d65223a2200000000000000000000000000000000000000000000008152600086516126ce816009850160208b01611dde565b7f222c226465736372697074696f6e223a22000000000000000000000000000000600991840191820152865161270b81601a840160208b01611dde565b61271a601a82840101886125fc565b9150507f222c22696d616765223a220000000000000000000000000000000000000000008152845161275381600b840160208901611dde565b7f222c2261747472696275746573223a5b00000000000000000000000000000000600b9290910191820152835161279181601b840160208801611dde565b7f5d7d000000000000000000000000000000000000000000000000000000000000601b9290910191820152601d01979650505050505050565b7f646174613a6170706c69636174696f6e2f6a736f6e3b6261736536342c00000081526000825161280281601d850160208701611dde565b91909101601d0192915050565b7f697066733a2f2f0000000000000000000000000000000000000000000000000081526000611dbe60078301846125fc565b634e487b7160e01b600052603260045260246000fd5b634e487b7160e01b600052601160045260246000fd5b600060001982141561288157612881612857565b5060010190565b7f7b2274726169745f74797065223a224261646765205469746c65222c2276616c81527f7565223a22000000000000000000000000000000000000000000000000000000602082015260006128e060258301846125fc565b7f227d00000000000000000000000000000000000000000000000000000000000081526002019392505050565b6000821982111561292057612920612857565b500190565b60008261294257634e487b7160e01b600052601260045260246000fd5b500490565b600081600019048311821515161561296157612961612857565b500290565b60006001600160a01b03808816835280871660208401525084604083015283606083015260a0608083015261299e60a0830184611e0a565b979650505050505050565b6000602082840312156129bb57600080fd5b8151611dbe81611d8b565b600060033d11156129df5760046000803e5060005160e01c5b90565b600060443d10156129f05790565b6040516003193d81016004833e81513d67ffffffffffffffff8160248401118184111715612a2057505050505090565b8285019150815181811115612a385750505050505090565b843d8701016020828501011115612a525750505050505090565b612a6160208286010187611e85565b50909594505050505056fe4142434445464748494a4b4c4d4e4f505152535455565758595a6162636465666768696a6b6c6d6e6f707172737475767778797a303132333435363738392b2fa26469706673582212209c39fcdd029ec5bd248c3b20a1b1835ab4416ae5dda602963a88dda01735967e64736f6c63430008090033",
  "linkReferences": {},
  "deployedLinkReferences": {}
}