{
  "_format": "hh-sol-artifact-1",
  "contractName": "BadgerSet",
  "sourceName": "contracts/Badger/BadgeSet/BadgerSet.sol",
  "abi": [
    {
      "inputs": [],
      "name": "AdminOnly",
      "type": "error"
    },
    {
      "inputs": [],
      "name": "BadgeDoesNotExist",
      "type": "error"
    },
    {
      "inputs": [],
      "name": "BadgeExists",
      "type": "error"
    },
    {
      "inputs": [],
      "name": "BadgesAreBoundToAddress",
      "type": "error"
    },
    {
      "inputs": [],
      "name": "BundleLengthsInvalid",
      "type": "error"
    },
    {
      "anonymous": false,
      "inputs": [
        {
          "indexed": true,
          "internalType": "address",
          "name": "account",
          "type": "address"
        },
        {
          "indexed": true,
          "internalType": "address",
          "name": "operator",
          "type": "address"
        },
        {
          "indexed": false,
          "internalType": "bool",
          "name": "approved",
          "type": "bool"
        }
      ],
      "name": "ApprovalForAll",
      "type": "event"
    },
    {
      "anonymous": false,
      "inputs": [
        {
          "indexed": false,
          "internalType": "uint8",
          "name": "version",
          "type": "uint8"
        }
      ],
      "name": "Initialized",
      "type": "event"
    },
    {
      "anonymous": false,
      "inputs": [
        {
          "indexed": true,
          "internalType": "address",
          "name": "previousOwner",
          "type": "address"
        },
        {
          "indexed": true,
          "internalType": "address",
          "name": "newOwner",
          "type": "address"
        }
      ],
      "name": "OwnershipTransferred",
      "type": "event"
    },
    {
      "anonymous": false,
      "inputs": [
        {
          "indexed": true,
          "internalType": "address",
          "name": "operator",
          "type": "address"
        },
        {
          "indexed": true,
          "internalType": "address",
          "name": "from",
          "type": "address"
        },
        {
          "indexed": true,
          "internalType": "address",
          "name": "to",
          "type": "address"
        },
        {
          "indexed": false,
          "internalType": "uint256[]",
          "name": "ids",
          "type": "uint256[]"
        },
        {
          "indexed": false,
          "internalType": "uint256[]",
          "name": "values",
          "type": "uint256[]"
        }
      ],
      "name": "TransferBatch",
      "type": "event"
    },
    {
      "anonymous": false,
      "inputs": [
        {
          "indexed": true,
          "internalType": "address",
          "name": "operator",
          "type": "address"
        },
        {
          "indexed": true,
          "internalType": "address",
          "name": "from",
          "type": "address"
        },
        {
          "indexed": true,
          "internalType": "address",
          "name": "to",
          "type": "address"
        },
        {
          "indexed": false,
          "internalType": "uint256",
          "name": "id",
          "type": "uint256"
        },
        {
          "indexed": false,
          "internalType": "uint256",
          "name": "value",
          "type": "uint256"
        }
      ],
      "name": "TransferSingle",
      "type": "event"
    },
    {
      "anonymous": false,
      "inputs": [
        {
          "indexed": false,
          "internalType": "string",
          "name": "value",
          "type": "string"
        },
        {
          "indexed": true,
          "internalType": "uint256",
          "name": "id",
          "type": "uint256"
        }
      ],
      "name": "URI",
      "type": "event"
    },
    {
      "inputs": [
        {
          "internalType": "address",
          "name": "",
          "type": "address"
        }
      ],
      "name": "admins",
      "outputs": [
        {
          "internalType": "bool",
          "name": "",
          "type": "bool"
        }
      ],
      "stateMutability": "view",
      "type": "function"
    },
    {
      "inputs": [
        {
          "internalType": "uint256",
          "name": "_badgeId",
          "type": "uint256"
        }
      ],
      "name": "badgeImage",
      "outputs": [
        {
          "internalType": "string",
          "name": "imageString",
          "type": "string"
        }
      ],
      "stateMutability": "view",
      "type": "function"
    },
    {
      "inputs": [
        {
          "internalType": "uint256",
          "name": "_badgeId",
          "type": "uint256"
        }
      ],
      "name": "badgeTraits",
      "outputs": [
        {
          "internalType": "string",
          "name": "traitString",
          "type": "string"
        }
      ],
      "stateMutability": "view",
      "type": "function"
    },
    {
      "inputs": [
        {
          "internalType": "uint256",
          "name": "",
          "type": "uint256"
        }
      ],
      "name": "badges",
      "outputs": [
        {
          "internalType": "string",
          "name": "title",
          "type": "string"
        },
        {
          "internalType": "string",
          "name": "description",
          "type": "string"
        },
        {
          "internalType": "string",
          "name": "imageHash",
          "type": "string"
        }
      ],
      "stateMutability": "view",
      "type": "function"
    },
    {
      "inputs": [
        {
          "internalType": "address",
          "name": "account",
          "type": "address"
        },
        {
          "internalType": "uint256",
          "name": "id",
          "type": "uint256"
        }
      ],
      "name": "balanceOf",
      "outputs": [
        {
          "internalType": "uint256",
          "name": "",
          "type": "uint256"
        }
      ],
      "stateMutability": "view",
      "type": "function"
    },
    {
      "inputs": [
        {
          "internalType": "address[]",
          "name": "accounts",
          "type": "address[]"
        },
        {
          "internalType": "uint256[]",
          "name": "ids",
          "type": "uint256[]"
        }
      ],
      "name": "balanceOfBatch",
      "outputs": [
        {
          "internalType": "uint256[]",
          "name": "",
          "type": "uint256[]"
        }
      ],
      "stateMutability": "view",
      "type": "function"
    },
    {
      "inputs": [
        {
          "internalType": "uint256",
          "name": "_badgeId",
          "type": "uint256"
        }
      ],
      "name": "burnBadge",
      "outputs": [],
      "stateMutability": "nonpayable",
      "type": "function"
    },
    {
      "inputs": [],
      "name": "contractURI",
      "outputs": [
        {
          "internalType": "string",
          "name": "",
          "type": "string"
        }
      ],
      "stateMutability": "view",
      "type": "function"
    },
    {
      "inputs": [],
      "name": "contractURIHash",
      "outputs": [
        {
          "internalType": "string",
          "name": "",
          "type": "string"
        }
      ],
      "stateMutability": "view",
      "type": "function"
    },
    {
      "inputs": [
        {
          "internalType": "uint256",
          "name": "_badgeId",
          "type": "uint256"
        },
        {
          "internalType": "string",
          "name": "_title",
          "type": "string"
        },
        {
          "internalType": "string",
          "name": "_description",
          "type": "string"
        },
        {
          "internalType": "string",
          "name": "_imageHash",
          "type": "string"
        }
      ],
      "name": "createBadgeType",
      "outputs": [],
      "stateMutability": "nonpayable",
      "type": "function"
    },
    {
      "inputs": [
        {
          "internalType": "uint256[]",
          "name": "_badgeIds",
          "type": "uint256[]"
        },
        {
          "components": [
            {
              "internalType": "string",
              "name": "title",
              "type": "string"
            },
            {
              "internalType": "string",
              "name": "description",
              "type": "string"
            },
            {
              "internalType": "string",
              "name": "imageHash",
              "type": "string"
            }
          ],
          "internalType": "struct BadgerSet.Badge[]",
          "name": "_badges",
          "type": "tuple[]"
        }
      ],
      "name": "createBadgeTypeBundle",
      "outputs": [],
      "stateMutability": "nonpayable",
      "type": "function"
    },
    {
      "inputs": [
        {
          "internalType": "string",
          "name": "_baseURI",
          "type": "string"
        },
        {
          "internalType": "string",
          "name": "_contractURI",
          "type": "string"
        },
        {
          "internalType": "string",
          "name": "_collectionDescription",
          "type": "string"
        }
      ],
      "name": "initialize",
      "outputs": [],
      "stateMutability": "nonpayable",
      "type": "function"
    },
    {
      "inputs": [
        {
          "internalType": "address",
          "name": "account",
          "type": "address"
        },
        {
          "internalType": "address",
          "name": "operator",
          "type": "address"
        }
      ],
      "name": "isApprovedForAll",
      "outputs": [
        {
          "internalType": "bool",
          "name": "",
          "type": "bool"
        }
      ],
      "stateMutability": "view",
      "type": "function"
    },
    {
      "inputs": [
        {
          "internalType": "address",
          "name": "_to",
          "type": "address"
        },
        {
          "internalType": "uint256",
          "name": "_badgeId",
          "type": "uint256"
        }
      ],
      "name": "mintBadge",
      "outputs": [],
      "stateMutability": "nonpayable",
      "type": "function"
    },
    {
      "inputs": [
        {
          "internalType": "address[]",
          "name": "_addresses",
          "type": "address[]"
        },
        {
          "internalType": "uint256[]",
          "name": "_badgeIds",
          "type": "uint256[]"
        }
      ],
      "name": "mintBadgeBundle",
      "outputs": [],
      "stateMutability": "nonpayable",
      "type": "function"
    },
    {
      "inputs": [],
      "name": "owner",
      "outputs": [
        {
          "internalType": "address",
          "name": "",
          "type": "address"
        }
      ],
      "stateMutability": "view",
      "type": "function"
    },
    {
      "inputs": [],
      "name": "renounceOwnership",
      "outputs": [],
      "stateMutability": "nonpayable",
      "type": "function"
    },
    {
      "inputs": [
        {
          "internalType": "address",
          "name": "_from",
          "type": "address"
        },
        {
          "internalType": "uint256",
          "name": "_badgeId",
          "type": "uint256"
        }
      ],
      "name": "revokeBadge",
      "outputs": [],
      "stateMutability": "nonpayable",
      "type": "function"
    },
    {
      "inputs": [
        {
          "internalType": "address",
          "name": "from",
          "type": "address"
        },
        {
          "internalType": "address",
          "name": "to",
          "type": "address"
        },
        {
          "internalType": "uint256[]",
          "name": "ids",
          "type": "uint256[]"
        },
        {
          "internalType": "uint256[]",
          "name": "amounts",
          "type": "uint256[]"
        },
        {
          "internalType": "bytes",
          "name": "data",
          "type": "bytes"
        }
      ],
      "name": "safeBatchTransferFrom",
      "outputs": [],
      "stateMutability": "nonpayable",
      "type": "function"
    },
    {
      "inputs": [
        {
          "internalType": "address",
          "name": "from",
          "type": "address"
        },
        {
          "internalType": "address",
          "name": "to",
          "type": "address"
        },
        {
          "internalType": "uint256",
          "name": "id",
          "type": "uint256"
        },
        {
          "internalType": "uint256",
          "name": "amount",
          "type": "uint256"
        },
        {
          "internalType": "bytes",
          "name": "data",
          "type": "bytes"
        }
      ],
      "name": "safeTransferFrom",
      "outputs": [],
      "stateMutability": "nonpayable",
      "type": "function"
    },
    {
      "inputs": [
        {
          "internalType": "address",
          "name": "operator",
          "type": "address"
        },
        {
          "internalType": "bool",
          "name": "approved",
          "type": "bool"
        }
      ],
      "name": "setApprovalForAll",
      "outputs": [],
      "stateMutability": "nonpayable",
      "type": "function"
    },
    {
      "inputs": [
        {
          "internalType": "string",
          "name": "_contractURIHash",
          "type": "string"
        }
      ],
      "name": "setContractURI",
      "outputs": [],
      "stateMutability": "nonpayable",
      "type": "function"
    },
    {
      "inputs": [
        {
          "internalType": "bytes4",
          "name": "interfaceId",
          "type": "bytes4"
        }
      ],
      "name": "supportsInterface",
      "outputs": [
        {
          "internalType": "bool",
          "name": "",
          "type": "bool"
        }
      ],
      "stateMutability": "view",
      "type": "function"
    },
    {
      "inputs": [
        {
          "internalType": "address",
          "name": "newOwner",
          "type": "address"
        }
      ],
      "name": "transferOwnership",
      "outputs": [],
      "stateMutability": "nonpayable",
      "type": "function"
    },
    {
      "inputs": [
        {
          "internalType": "address",
          "name": "_address",
          "type": "address"
        },
        {
          "internalType": "bool",
          "name": "_isAdmin",
          "type": "bool"
        }
      ],
      "name": "updateAdminRole",
      "outputs": [],
      "stateMutability": "nonpayable",
      "type": "function"
    },
    {
      "inputs": [
        {
          "internalType": "uint256",
          "name": "_badgeId",
          "type": "uint256"
        },
        {
          "internalType": "string",
          "name": "_title",
          "type": "string"
        },
        {
          "internalType": "string",
          "name": "_description",
          "type": "string"
        },
        {
          "internalType": "string",
          "name": "_imageHash",
          "type": "string"
        }
      ],
      "name": "updateBadgeType",
      "outputs": [],
      "stateMutability": "nonpayable",
      "type": "function"
    },
    {
      "inputs": [
        {
          "internalType": "uint256",
          "name": "_badgeId",
          "type": "uint256"
        }
      ],
      "name": "uri",
      "outputs": [
        {
          "internalType": "string",
          "name": "badgeURI",
          "type": "string"
        }
      ],
      "stateMutability": "view",
      "type": "function"
    }
  ],
  "bytecode": "0x608060405234801561001057600080fd5b50612c7b806100206000396000f3fe608060405234801561001057600080fd5b50600436106101b75760003560e01c80638da5cb5b116100f9578063c421793211610097578063e8a3d48511610071578063e8a3d485146103bc578063e985e9c5146103c4578063f242432a146103d7578063f2fde38b146103e557600080fd5b8063c42179321461038e578063c75a752b14610396578063e42bff66146103a957600080fd5b8063a22cb465116100d3578063a22cb46514610347578063a6487c5314610355578063c0f7df7714610368578063c25373721461037b57600080fd5b80638da5cb5b146102f7578063938e3d7b1461031257806398e36d8b1461032557600080fd5b8063429b62e5116101665780635dbfd1d5116101405780635dbfd1d5146102b6578063715018a6146102c957806374e8dc2c146102d15780637b5455df146102e457600080fd5b8063429b62e5146102605780634e1273f41461028357806355de28ae146102a357600080fd5b80630e89341c116101975780630e89341c1461021a5780632eb2c2d61461023a5780633d7c8d8e1461024d57600080fd5b8062ede9a6146101bc578062fdd58e146101d157806301ffc9a7146101f7575b600080fd5b6101cf6101ca366004611d36565b6103f8565b005b6101e46101df366004611dbe565b61050e565b6040519081526020015b60405180910390f35b61020a610205366004611dfe565b6105bc565b60405190151581526020016101ee565b61022d610228366004611e22565b6105fa565b6040516101ee9190611e93565b6101cf610248366004611ff2565b610879565b61022d61025b366004611e22565b6108ab565b61020a61026e36600461209c565b60cb6020526000908152604090205460ff1681565b6102966102913660046120b7565b610924565b6040516101ee9190612182565b6101cf6102b1366004611e22565b610a62565b61022d6102c4366004611e22565b610a79565b6101cf610ad7565b6101cf6102df366004612208565b610aeb565b6101cf6102f2366004611dbe565b610c72565b6033546040516001600160a01b0390911681526020016101ee565b6101cf6103203660046122ac565b610cb5565b610338610333366004611e22565b610cd0565b6040516101ee939291906122e9565b6101cf61024836600461232c565b6101cf610363366004612368565b610e8a565b6101cf610376366004611d36565b610ff0565b6101cf61038936600461232c565b6110fc565b61022d61112f565b6101cf6103a4366004612208565b6111bd565b6101cf6103b7366004611dbe565b6111ed565b61022d61127b565b61020a6103d23660046123f0565b6112a3565b6101cf610248366004612423565b6101cf6103f336600461209c565b6112d5565b33600090815260cb602052604090205460ff1661042857604051633057182d60e21b815260040160405180910390fd5b80831461044857604051631e2c434f60e01b815260040160405180910390fd5b60005b8381101561050757600083838381811061046757610467612488565b90506020020135905060cc600082815260200190815260200160002060000180546104919061249e565b151590506104b25760405163a32ee77b60e01b815260040160405180910390fd5b6104f48686848181106104c7576104c7612488565b90506020020160208101906104dc919061209c565b82600160405180602001604052806000815250611362565b50806104ff816124e9565b91505061044b565b5050505050565b60006001600160a01b0383166105915760405162461bcd60e51b815260206004820152602a60248201527f455243313135353a2061646472657373207a65726f206973206e6f742061207660448201527f616c6964206f776e65720000000000000000000000000000000000000000000060648201526084015b60405180910390fd5b5060008181526097602090815260408083206001600160a01b03861684529091529020545b92915050565b60006001600160e01b031982167fe8a3d4850000000000000000000000000000000000000000000000000000000014806105b657506105b682611494565b600081815260cc60205260409020805460609183916106189061249e565b151590506106395760405163a32ee77b60e01b815260040160405180910390fd5b600083815260cc60205260408082208151606081019092528054829082906106609061249e565b80601f016020809104026020016040519081016040528092919081815260200182805461068c9061249e565b80156106d95780601f106106ae576101008083540402835291602001916106d9565b820191906000526020600020905b8154815290600101906020018083116106bc57829003601f168201915b505050505081526020016001820180546106f29061249e565b80601f016020809104026020016040519081016040528092919081815260200182805461071e9061249e565b801561076b5780601f106107405761010080835404028352916020019161076b565b820191906000526020600020905b81548152906001019060200180831161074e57829003601f168201915b505050505081526020016002820180546107849061249e565b80601f01602080910402602001604051908101604052809291908181526020018280546107b09061249e565b80156107fd5780601f106107d2576101008083540402835291602001916107fd565b820191906000526020600020905b8154815290600101906020018083116107e057829003601f168201915b50505050508152505090506108518160000151826020015160ca610820886108ab565b61082989610a79565b60405160200161083d95949392919061258f565b60405160208183030381529060405261152f565b604051602001610861919061273d565b60405160208183030381529060405292505050919050565b6040517f399a360000000000000000000000000000000000000000000000000000000000815260040160405180910390fd5b600081815260cc60205260409020805460609183916108c99061249e565b151590506108ea5760405163a32ee77b60e01b815260040160405180910390fd5b600083815260cc6020908152604091829020915161090c926002019101612782565b60405160208183030381529060405291505b50919050565b6060815183511461099d5760405162461bcd60e51b815260206004820152602960248201527f455243313135353a206163636f756e747320616e6420696473206c656e67746860448201527f206d69736d6174636800000000000000000000000000000000000000000000006064820152608401610588565b6000835167ffffffffffffffff8111156109b9576109b9611ea6565b6040519080825280602002602001820160405280156109e2578160200160208202803683370190505b50905060005b8451811015610a5a57610a2d858281518110610a0657610a06612488565b6020026020010151858381518110610a2057610a20612488565b602002602001015161050e565b828281518110610a3f57610a3f612488565b6020908102919091010152610a53816124e9565b90506109e8565b509392505050565b610a763382610a71338561050e565b6116cc565b50565b600081815260cc6020526040902080546060918391610a979061249e565b15159050610ab85760405163a32ee77b60e01b815260040160405180910390fd5b600083815260cc6020908152604091829020915161090c9291016127b4565b610adf61187e565b610ae960006118d8565b565b33600090815260cb602052604090205460ff16610b1b57604051633057182d60e21b815260040160405180910390fd5b600087815260cc602052604090208054610b349061249e565b159050610b545760405163ed96c68160e01b815260040160405180910390fd5b604051806060016040528087878080601f016020809104026020016040519081016040528093929190818152602001838380828437600092019190915250505090825250604080516020601f880181900481028201810190925286815291810191908790879081908401838280828437600092019190915250505090825250604080516020601f860181900481028201810190925284815291810191908590859081908401838280828437600092018290525093909452505089815260cc6020908152604090912083518051919350610c31928492910190611c51565b506020828101518051610c4a9260018501920190611c51565b5060408201518051610c66916002840191602090910190611c51565b50505050505050505050565b33600090815260cb602052604090205460ff16610ca257604051633057182d60e21b815260040160405180910390fd5b610cb18282610a71858561050e565b5050565b610cbd61187e565b8051610cb19060c9906020840190611c51565b60cc60205260009081526040902080548190610ceb9061249e565b80601f0160208091040260200160405190810160405280929190818152602001828054610d179061249e565b8015610d645780601f10610d3957610100808354040283529160200191610d64565b820191906000526020600020905b815481529060010190602001808311610d4757829003601f168201915b505050505090806001018054610d799061249e565b80601f0160208091040260200160405190810160405280929190818152602001828054610da59061249e565b8015610df25780601f10610dc757610100808354040283529160200191610df2565b820191906000526020600020905b815481529060010190602001808311610dd557829003601f168201915b505050505090806002018054610e079061249e565b80601f0160208091040260200160405190810160405280929190818152602001828054610e339061249e565b8015610e805780601f10610e5557610100808354040283529160200191610e80565b820191906000526020600020905b815481529060010190602001808311610e6357829003601f168201915b5050505050905083565b600054610100900460ff1615808015610eaa5750600054600160ff909116105b80610ec45750303b158015610ec4575060005460ff166001145b610f365760405162461bcd60e51b815260206004820152602e60248201527f496e697469616c697a61626c653a20636f6e747261637420697320616c72656160448201527f647920696e697469616c697a65640000000000000000000000000000000000006064820152608401610588565b6000805460ff191660011790558015610f59576000805461ff0019166101001790555b610f6284611942565b8251610f759060c9906020860190611c51565b508151610f899060ca906020850190611c51565b5033600090815260cb60205260409020805460ff191660011790558015610fea576000805461ff0019169055604051600181527f7f26b83ff96e1f2b6a682f133852f6798a09c465da95921460cefb38474024989060200160405180910390a15b50505050565b33600090815260cb602052604090205460ff1661102057604051633057182d60e21b815260040160405180910390fd5b82811461104057604051631e2c434f60e01b815260040160405180910390fd5b60005b8381101561050757600085858381811061105f5761105f612488565b90506020020135905060cc600082815260200190815260200160002060000180546110899061249e565b1590506110a95760405163ed96c68160e01b815260040160405180910390fd5b8383838181106110bb576110bb612488565b90506020028101906110cd9190612839565b600082815260cc602052604090206110e582826129a6565b9050505080806110f4906124e9565b915050611043565b61110461187e565b6001600160a01b0391909116600090815260cb60205260409020805460ff1916911515919091179055565b60c9805461113c9061249e565b80601f01602080910402602001604051908101604052809291908181526020018280546111689061249e565b80156111b55780601f1061118a576101008083540402835291602001916111b5565b820191906000526020600020905b81548152906001019060200180831161119857829003601f168201915b505050505081565b33600090815260cb602052604090205460ff16610b5457604051633057182d60e21b815260040160405180910390fd5b33600090815260cb602052604090205460ff1661121d57604051633057182d60e21b815260040160405180910390fd5b600081815260cc6020526040902080548291906112399061249e565b1515905061125a5760405163a32ee77b60e01b815260040160405180910390fd5b6112768383600160405180602001604052806000815250611362565b505050565b606060c960405160200161128f9190612782565b604051602081830303815290604052905090565b6001600160a01b038116600090815260cb602052604081205460ff16156112cc575060016105b6565b50600092915050565b6112dd61187e565b6001600160a01b0381166113595760405162461bcd60e51b815260206004820152602660248201527f4f776e61626c653a206e6577206f776e657220697320746865207a65726f206160448201527f64647265737300000000000000000000000000000000000000000000000000006064820152608401610588565b610a76816118d8565b6001600160a01b0384166113de5760405162461bcd60e51b815260206004820152602160248201527f455243313135353a206d696e7420746f20746865207a65726f2061646472657360448201527f73000000000000000000000000000000000000000000000000000000000000006064820152608401610588565b3360006113ea856119b6565b905060006113f7856119b6565b905060008681526097602090815260408083206001600160a01b038b1684529091528120805487929061142b908490612aa6565b909155505060408051878152602081018790526001600160a01b03808a1692600092918716917fc3d58168c5ae7397731d063d5bbf3d657854427343f4c083240f7aacaa2d0f62910160405180910390a461148b83600089898989611a09565b50505050505050565b60006001600160e01b031982167fd9b67a260000000000000000000000000000000000000000000000000000000014806114f757506001600160e01b031982167f0e89341c00000000000000000000000000000000000000000000000000000000145b806105b657507f01ffc9a7000000000000000000000000000000000000000000000000000000006001600160e01b03198316146105b6565b606081516000141561154f57505060408051602081019091526000815290565b6000604051806060016040528060408152602001612c06604091399050600060038451600261157e9190612aa6565b6115889190612abe565b611593906004612ae0565b905060006115a2826020612aa6565b67ffffffffffffffff8111156115ba576115ba611ea6565b6040519080825280601f01601f1916602001820160405280156115e4576020820181803683370190505b509050818152600183018586518101602084015b81831015611650576003830192508251603f8160121c168501518253600182019150603f81600c1c168501518253600182019150603f8160061c168501518253600182019150603f81168501518253506001016115f8565b60038951066001811461166a5760028114611696576116be565b7f3d3d0000000000000000000000000000000000000000000000000000000000006001198301526116be565b7f3d000000000000000000000000000000000000000000000000000000000000006000198301525b509398975050505050505050565b6001600160a01b0383166117485760405162461bcd60e51b815260206004820152602360248201527f455243313135353a206275726e2066726f6d20746865207a65726f206164647260448201527f65737300000000000000000000000000000000000000000000000000000000006064820152608401610588565b336000611754846119b6565b90506000611761846119b6565b6040805160208082018352600091829052888252609781528282206001600160a01b038b16835290522054909150848110156118045760405162461bcd60e51b8152602060048201526024808201527f455243313135353a206275726e20616d6f756e7420657863656564732062616c60448201527f616e6365000000000000000000000000000000000000000000000000000000006064820152608401610588565b60008681526097602090815260408083206001600160a01b038b81168086529184528285208a8703905582518b81529384018a90529092908816917fc3d58168c5ae7397731d063d5bbf3d657854427343f4c083240f7aacaa2d0f62910160405180910390a460408051602081019091526000905261148b565b6033546001600160a01b03163314610ae95760405162461bcd60e51b815260206004820181905260248201527f4f776e61626c653a2063616c6c6572206973206e6f7420746865206f776e65726044820152606401610588565b603380546001600160a01b038381167fffffffffffffffffffffffff0000000000000000000000000000000000000000831681179093556040519116919082907f8be0079c531659141344cd1fd0a4f28419497f9722a3daafe3b4186f6b6457e090600090a35050565b600054610100900460ff166119ad5760405162461bcd60e51b815260206004820152602b60248201527f496e697469616c697a61626c653a20636f6e7472616374206973206e6f74206960448201526a6e697469616c697a696e6760a81b6064820152608401610588565b610a7681611bd3565b604080516001808252818301909252606091600091906020808301908036833701905050905082816000815181106119f0576119f0612488565b602090810291909101015292915050565b505050505050565b6001600160a01b0384163b15611a015760405163f23a6e6160e01b81526001600160a01b0385169063f23a6e6190611a4d9089908990889088908890600401612aff565b602060405180830381600087803b158015611a6757600080fd5b505af1925050508015611a97575060408051601f3d908101601f19168201909252611a9491810190612b42565b60015b611b4d57611aa3612b5f565b806308c379a01415611add5750611ab8612b7b565b80611ac35750611adf565b8060405162461bcd60e51b81526004016105889190611e93565b505b60405162461bcd60e51b815260206004820152603460248201527f455243313135353a207472616e7366657220746f206e6f6e204552433131353560448201527f526563656976657220696d706c656d656e7465720000000000000000000000006064820152608401610588565b6001600160e01b0319811663f23a6e6160e01b1461148b5760405162461bcd60e51b815260206004820152602860248201527f455243313135353a204552433131353552656365697665722072656a6563746560448201527f6420746f6b656e730000000000000000000000000000000000000000000000006064820152608401610588565b600054610100900460ff16611c3e5760405162461bcd60e51b815260206004820152602b60248201527f496e697469616c697a61626c653a20636f6e7472616374206973206e6f74206960448201526a6e697469616c697a696e6760a81b6064820152608401610588565b610a76818051610cb19060999060208401905b828054611c5d9061249e565b90600052602060002090601f016020900481019282611c7f5760008555611cc5565b82601f10611c9857805160ff1916838001178555611cc5565b82800160010185558215611cc5579182015b82811115611cc5578251825591602001919060010190611caa565b50611cd1929150611cd5565b5090565b5b80821115611cd15760008155600101611cd6565b60008083601f840112611cfc57600080fd5b50813567ffffffffffffffff811115611d1457600080fd5b6020830191508360208260051b8501011115611d2f57600080fd5b9250929050565b60008060008060408587031215611d4c57600080fd5b843567ffffffffffffffff80821115611d6457600080fd5b611d7088838901611cea565b90965094506020870135915080821115611d8957600080fd5b50611d9687828801611cea565b95989497509550505050565b80356001600160a01b0381168114611db957600080fd5b919050565b60008060408385031215611dd157600080fd5b611dda83611da2565b946020939093013593505050565b6001600160e01b031981168114610a7657600080fd5b600060208284031215611e1057600080fd5b8135611e1b81611de8565b9392505050565b600060208284031215611e3457600080fd5b5035919050565b60005b83811015611e56578181015183820152602001611e3e565b83811115610fea5750506000910152565b60008151808452611e7f816020860160208601611e3b565b601f01601f19169290920160200192915050565b602081526000611e1b6020830184611e67565b634e487b7160e01b600052604160045260246000fd5b601f8201601f1916810167ffffffffffffffff81118282101715611ee257611ee2611ea6565b6040525050565b600067ffffffffffffffff821115611f0357611f03611ea6565b5060051b60200190565b600082601f830112611f1e57600080fd5b81356020611f2b82611ee9565b604051611f388282611ebc565b83815260059390931b8501820192828101915086841115611f5857600080fd5b8286015b84811015611f735780358352918301918301611f5c565b509695505050505050565b600082601f830112611f8f57600080fd5b813567ffffffffffffffff811115611fa957611fa9611ea6565b604051611fc0601f8301601f191660200182611ebc565b818152846020838601011115611fd557600080fd5b816020850160208301376000918101602001919091529392505050565b600080600080600060a0868803121561200a57600080fd5b61201386611da2565b945061202160208701611da2565b9350604086013567ffffffffffffffff8082111561203e57600080fd5b61204a89838a01611f0d565b9450606088013591508082111561206057600080fd5b61206c89838a01611f0d565b9350608088013591508082111561208257600080fd5b5061208f88828901611f7e565b9150509295509295909350565b6000602082840312156120ae57600080fd5b611e1b82611da2565b600080604083850312156120ca57600080fd5b823567ffffffffffffffff808211156120e257600080fd5b818501915085601f8301126120f657600080fd5b8135602061210382611ee9565b6040516121108282611ebc565b83815260059390931b850182019282810191508984111561213057600080fd5b948201945b838610156121555761214686611da2565b82529482019490820190612135565b9650508601359250508082111561216b57600080fd5b5061217885828601611f0d565b9150509250929050565b6020808252825182820181905260009190848201906040850190845b818110156121ba5783518352928401929184019160010161219e565b50909695505050505050565b60008083601f8401126121d857600080fd5b50813567ffffffffffffffff8111156121f057600080fd5b602083019150836020828501011115611d2f57600080fd5b60008060008060008060006080888a03121561222357600080fd5b87359650602088013567ffffffffffffffff8082111561224257600080fd5b61224e8b838c016121c6565b909850965060408a013591508082111561226757600080fd5b6122738b838c016121c6565b909650945060608a013591508082111561228c57600080fd5b506122998a828b016121c6565b989b979a50959850939692959293505050565b6000602082840312156122be57600080fd5b813567ffffffffffffffff8111156122d557600080fd5b6122e184828501611f7e565b949350505050565b6060815260006122fc6060830186611e67565b828103602084015261230e8186611e67565b905082810360408401526123228185611e67565b9695505050505050565b6000806040838503121561233f57600080fd5b61234883611da2565b91506020830135801515811461235d57600080fd5b809150509250929050565b60008060006060848603121561237d57600080fd5b833567ffffffffffffffff8082111561239557600080fd5b6123a187838801611f7e565b945060208601359150808211156123b757600080fd5b6123c387838801611f7e565b935060408601359150808211156123d957600080fd5b506123e686828701611f7e565b9150509250925092565b6000806040838503121561240357600080fd5b61240c83611da2565b915061241a60208401611da2565b90509250929050565b600080600080600060a0868803121561243b57600080fd5b61244486611da2565b945061245260208701611da2565b93506040860135925060608601359150608086013567ffffffffffffffff81111561247c57600080fd5b61208f88828901611f7e565b634e487b7160e01b600052603260045260246000fd5b600181811c908216806124b257607f821691505b6020821081141561091e57634e487b7160e01b600052602260045260246000fd5b634e487b7160e01b600052601160045260246000fd5b60006000198214156124fd576124fd6124d3565b5060010190565b60008151612516818560208601611e3b565b9290920192915050565b6000815461252d8161249e565b60018281168015612545576001811461255657612585565b60ff19841687528287019450612585565b8560005260208060002060005b8581101561257c5781548a820152908401908201612563565b50505082870194505b5050505092915050565b7f7b226e616d65223a2200000000000000000000000000000000000000000000008152600086516125c7816009850160208b01611e3b565b7f222c226465736372697074696f6e223a22000000000000000000000000000000600991840191820152865161260481601a840160208b01611e3b565b8082019150507f5c6e5c6e0000000000000000000000000000000000000000000000000000000080601a83015261263e601e830188612520565b9150808252507f5b4120426164676572206d616e6167656420746f6b656e2e5d2868747470733a60048201527f2f2f6261646765722e75746332342e696f2f290000000000000000000000000060248201527f222c22696d616765223a22000000000000000000000000000000000000000000603782015284516126c9816042840160208901611e3b565b6127306127076127016042848601017f222c2261747472696275746573223a5b00000000000000000000000000000000815260100190565b87612504565b7f5d7d000000000000000000000000000000000000000000000000000000000000815260020190565b9998505050505050505050565b7f646174613a6170706c69636174696f6e2f6a736f6e3b6261736536342c00000081526000825161277581601d850160208701611e3b565b91909101601d0192915050565b7f697066733a2f2f0000000000000000000000000000000000000000000000000081526000611e1b6007830184612520565b7f7b2274726169745f74797065223a224261646765205469746c65222c2276616c81527f7565223a220000000000000000000000000000000000000000000000000000006020820152600061280c6025830184612520565b7f227d00000000000000000000000000000000000000000000000000000000000081526002019392505050565b60008235605e1983360301811261284f57600080fd5b9190910192915050565b6000808335601e1984360301811261287057600080fd5b83018035915067ffffffffffffffff82111561288b57600080fd5b602001915036819003821315611d2f57600080fd5b601f82111561127657600081815260208120601f850160051c810160208610156128c75750805b601f850160051c820191505b81811015611a01578281556001016128d3565b67ffffffffffffffff8311156128fe576128fe611ea6565b6129128361290c835461249e565b836128a0565b6000601f841160018114612946576000851561292e5750838201355b600019600387901b1c1916600186901b178355610507565b600083815260209020601f19861690835b828110156129775786850135825560209485019460019092019101612957565b50868210156129945760001960f88860031b161c19848701351681555b505060018560011b0183555050505050565b6129b08283612859565b67ffffffffffffffff8111156129c8576129c8611ea6565b6129dc816129d6855461249e565b856128a0565b6000601f821160018114612a1057600083156129f85750838201355b600019600385901b1c1916600184901b178555612a6a565b600085815260209020601f19841690835b82811015612a415786850135825560209485019460019092019101612a21565b5084821015612a5e5760001960f88660031b161c19848701351681555b505060018360011b0185555b50505050612a7b6020830183612859565b612a898183600186016128e6565b5050612a986040830183612859565b610fea8183600286016128e6565b60008219821115612ab957612ab96124d3565b500190565b600082612adb57634e487b7160e01b600052601260045260246000fd5b500490565b6000816000190483118215151615612afa57612afa6124d3565b500290565b60006001600160a01b03808816835280871660208401525084604083015283606083015260a06080830152612b3760a0830184611e67565b979650505050505050565b600060208284031215612b5457600080fd5b8151611e1b81611de8565b600060033d1115612b785760046000803e5060005160e01c5b90565b600060443d1015612b895790565b6040516003193d81016004833e81513d67ffffffffffffffff8160248401118184111715612bb957505050505090565b8285019150815181811115612bd15750505050505090565b843d8701016020828501011115612beb5750505050505090565b612bfa60208286010187611ebc565b50909594505050505056fe4142434445464748494a4b4c4d4e4f505152535455565758595a6162636465666768696a6b6c6d6e6f707172737475767778797a303132333435363738392b2fa2646970667358221220c4fa9bd1ff39dc0956354c26bceebe353249858157c321d3407c6696e1f88d8764736f6c63430008090033",
  "linkReferences": {},
  "deployedLinkReferences": {}
}