{
  "_format": "hh-sol-artifact-1",
  "contractName": "BadgerSet",
  "sourceName": "contracts/Badger/BadgeSet/BadgerSet.sol",
  "abi": [
    {
      "inputs": [],
      "name": "AdminOnly",
      "type": "error"
    },
    {
      "inputs": [],
      "name": "BadgeDoesNotExist",
      "type": "error"
    },
    {
      "inputs": [],
      "name": "BadgeExists",
      "type": "error"
    },
    {
      "inputs": [],
      "name": "BadgesAreBoundToAddress",
      "type": "error"
    },
    {
      "inputs": [],
      "name": "BundleLengthsInvalid",
      "type": "error"
    },
    {
      "anonymous": false,
      "inputs": [
        {
          "indexed": true,
          "internalType": "address",
          "name": "account",
          "type": "address"
        },
        {
          "indexed": true,
          "internalType": "address",
          "name": "operator",
          "type": "address"
        },
        {
          "indexed": false,
          "internalType": "bool",
          "name": "approved",
          "type": "bool"
        }
      ],
      "name": "ApprovalForAll",
      "type": "event"
    },
    {
      "anonymous": false,
      "inputs": [
        {
          "indexed": false,
          "internalType": "uint8",
          "name": "version",
          "type": "uint8"
        }
      ],
      "name": "Initialized",
      "type": "event"
    },
    {
      "anonymous": false,
      "inputs": [
        {
          "indexed": true,
          "internalType": "address",
          "name": "previousOwner",
          "type": "address"
        },
        {
          "indexed": true,
          "internalType": "address",
          "name": "newOwner",
          "type": "address"
        }
      ],
      "name": "OwnershipTransferred",
      "type": "event"
    },
    {
      "anonymous": false,
      "inputs": [
        {
          "indexed": true,
          "internalType": "address",
          "name": "operator",
          "type": "address"
        },
        {
          "indexed": true,
          "internalType": "address",
          "name": "from",
          "type": "address"
        },
        {
          "indexed": true,
          "internalType": "address",
          "name": "to",
          "type": "address"
        },
        {
          "indexed": false,
          "internalType": "uint256[]",
          "name": "ids",
          "type": "uint256[]"
        },
        {
          "indexed": false,
          "internalType": "uint256[]",
          "name": "values",
          "type": "uint256[]"
        }
      ],
      "name": "TransferBatch",
      "type": "event"
    },
    {
      "anonymous": false,
      "inputs": [
        {
          "indexed": true,
          "internalType": "address",
          "name": "operator",
          "type": "address"
        },
        {
          "indexed": true,
          "internalType": "address",
          "name": "from",
          "type": "address"
        },
        {
          "indexed": true,
          "internalType": "address",
          "name": "to",
          "type": "address"
        },
        {
          "indexed": false,
          "internalType": "uint256",
          "name": "id",
          "type": "uint256"
        },
        {
          "indexed": false,
          "internalType": "uint256",
          "name": "value",
          "type": "uint256"
        }
      ],
      "name": "TransferSingle",
      "type": "event"
    },
    {
      "anonymous": false,
      "inputs": [
        {
          "indexed": false,
          "internalType": "string",
          "name": "value",
          "type": "string"
        },
        {
          "indexed": true,
          "internalType": "uint256",
          "name": "id",
          "type": "uint256"
        }
      ],
      "name": "URI",
      "type": "event"
    },
    {
      "inputs": [
        {
          "internalType": "address",
          "name": "",
          "type": "address"
        }
      ],
      "name": "admins",
      "outputs": [
        {
          "internalType": "bool",
          "name": "",
          "type": "bool"
        }
      ],
      "stateMutability": "view",
      "type": "function"
    },
    {
      "inputs": [
        {
          "internalType": "uint256",
          "name": "_badgeId",
          "type": "uint256"
        }
      ],
      "name": "badgeImage",
      "outputs": [
        {
          "internalType": "string",
          "name": "imageString",
          "type": "string"
        }
      ],
      "stateMutability": "view",
      "type": "function"
    },
    {
      "inputs": [
        {
          "internalType": "uint256",
          "name": "_badgeId",
          "type": "uint256"
        }
      ],
      "name": "badgeTraits",
      "outputs": [
        {
          "internalType": "string",
          "name": "traitString",
          "type": "string"
        }
      ],
      "stateMutability": "view",
      "type": "function"
    },
    {
      "inputs": [
        {
          "internalType": "uint256",
          "name": "",
          "type": "uint256"
        }
      ],
      "name": "badges",
      "outputs": [
        {
          "internalType": "string",
          "name": "title",
          "type": "string"
        },
        {
          "internalType": "string",
          "name": "description",
          "type": "string"
        },
        {
          "internalType": "string",
          "name": "imageHash",
          "type": "string"
        }
      ],
      "stateMutability": "view",
      "type": "function"
    },
    {
      "inputs": [
        {
          "internalType": "address",
          "name": "account",
          "type": "address"
        },
        {
          "internalType": "uint256",
          "name": "id",
          "type": "uint256"
        }
      ],
      "name": "balanceOf",
      "outputs": [
        {
          "internalType": "uint256",
          "name": "",
          "type": "uint256"
        }
      ],
      "stateMutability": "view",
      "type": "function"
    },
    {
      "inputs": [
        {
          "internalType": "address[]",
          "name": "accounts",
          "type": "address[]"
        },
        {
          "internalType": "uint256[]",
          "name": "ids",
          "type": "uint256[]"
        }
      ],
      "name": "balanceOfBatch",
      "outputs": [
        {
          "internalType": "uint256[]",
          "name": "",
          "type": "uint256[]"
        }
      ],
      "stateMutability": "view",
      "type": "function"
    },
    {
      "inputs": [
        {
          "internalType": "uint256",
          "name": "_badgeId",
          "type": "uint256"
        }
      ],
      "name": "burnBadge",
      "outputs": [],
      "stateMutability": "nonpayable",
      "type": "function"
    },
    {
      "inputs": [],
      "name": "contractURI",
      "outputs": [
        {
          "internalType": "string",
          "name": "",
          "type": "string"
        }
      ],
      "stateMutability": "view",
      "type": "function"
    },
    {
      "inputs": [],
      "name": "contractURIHash",
      "outputs": [
        {
          "internalType": "string",
          "name": "",
          "type": "string"
        }
      ],
      "stateMutability": "view",
      "type": "function"
    },
    {
      "inputs": [
        {
          "internalType": "uint256",
          "name": "_badgeId",
          "type": "uint256"
        },
        {
          "internalType": "string",
          "name": "_title",
          "type": "string"
        },
        {
          "internalType": "string",
          "name": "_description",
          "type": "string"
        },
        {
          "internalType": "string",
          "name": "_imageHash",
          "type": "string"
        }
      ],
      "name": "createBadgeType",
      "outputs": [],
      "stateMutability": "nonpayable",
      "type": "function"
    },
    {
      "inputs": [
        {
          "internalType": "uint256[]",
          "name": "_badgeIds",
          "type": "uint256[]"
        },
        {
          "components": [
            {
              "internalType": "string",
              "name": "title",
              "type": "string"
            },
            {
              "internalType": "string",
              "name": "description",
              "type": "string"
            },
            {
              "internalType": "string",
              "name": "imageHash",
              "type": "string"
            }
          ],
          "internalType": "struct BadgerSet.Badge[]",
          "name": "_badges",
          "type": "tuple[]"
        }
      ],
      "name": "createBadgeTypeBundle",
      "outputs": [],
      "stateMutability": "nonpayable",
      "type": "function"
    },
    {
      "inputs": [
        {
          "internalType": "string",
          "name": "_contractURI",
          "type": "string"
        },
        {
          "internalType": "string",
          "name": "_collectionDescription",
          "type": "string"
        }
      ],
      "name": "initialize",
      "outputs": [],
      "stateMutability": "nonpayable",
      "type": "function"
    },
    {
      "inputs": [
        {
          "internalType": "address",
          "name": "account",
          "type": "address"
        },
        {
          "internalType": "address",
          "name": "operator",
          "type": "address"
        }
      ],
      "name": "isApprovedForAll",
      "outputs": [
        {
          "internalType": "bool",
          "name": "",
          "type": "bool"
        }
      ],
      "stateMutability": "view",
      "type": "function"
    },
    {
      "inputs": [
        {
          "internalType": "address",
          "name": "_to",
          "type": "address"
        },
        {
          "internalType": "uint256",
          "name": "_badgeId",
          "type": "uint256"
        }
      ],
      "name": "mintBadge",
      "outputs": [],
      "stateMutability": "nonpayable",
      "type": "function"
    },
    {
      "inputs": [
        {
          "internalType": "address[]",
          "name": "_addresses",
          "type": "address[]"
        },
        {
          "internalType": "uint256[]",
          "name": "_badgeIds",
          "type": "uint256[]"
        }
      ],
      "name": "mintBadgeBundle",
      "outputs": [],
      "stateMutability": "nonpayable",
      "type": "function"
    },
    {
      "inputs": [],
      "name": "owner",
      "outputs": [
        {
          "internalType": "address",
          "name": "",
          "type": "address"
        }
      ],
      "stateMutability": "view",
      "type": "function"
    },
    {
      "inputs": [],
      "name": "renounceOwnership",
      "outputs": [],
      "stateMutability": "nonpayable",
      "type": "function"
    },
    {
      "inputs": [
        {
          "internalType": "address",
          "name": "_from",
          "type": "address"
        },
        {
          "internalType": "uint256",
          "name": "_badgeId",
          "type": "uint256"
        }
      ],
      "name": "revokeBadge",
      "outputs": [],
      "stateMutability": "nonpayable",
      "type": "function"
    },
    {
      "inputs": [
        {
          "internalType": "address",
          "name": "from",
          "type": "address"
        },
        {
          "internalType": "address",
          "name": "to",
          "type": "address"
        },
        {
          "internalType": "uint256[]",
          "name": "ids",
          "type": "uint256[]"
        },
        {
          "internalType": "uint256[]",
          "name": "amounts",
          "type": "uint256[]"
        },
        {
          "internalType": "bytes",
          "name": "data",
          "type": "bytes"
        }
      ],
      "name": "safeBatchTransferFrom",
      "outputs": [],
      "stateMutability": "nonpayable",
      "type": "function"
    },
    {
      "inputs": [
        {
          "internalType": "address",
          "name": "from",
          "type": "address"
        },
        {
          "internalType": "address",
          "name": "to",
          "type": "address"
        },
        {
          "internalType": "uint256",
          "name": "id",
          "type": "uint256"
        },
        {
          "internalType": "uint256",
          "name": "amount",
          "type": "uint256"
        },
        {
          "internalType": "bytes",
          "name": "data",
          "type": "bytes"
        }
      ],
      "name": "safeTransferFrom",
      "outputs": [],
      "stateMutability": "nonpayable",
      "type": "function"
    },
    {
      "inputs": [
        {
          "internalType": "address",
          "name": "operator",
          "type": "address"
        },
        {
          "internalType": "bool",
          "name": "approved",
          "type": "bool"
        }
      ],
      "name": "setApprovalForAll",
      "outputs": [],
      "stateMutability": "nonpayable",
      "type": "function"
    },
    {
      "inputs": [
        {
          "internalType": "string",
          "name": "_contractURIHash",
          "type": "string"
        }
      ],
      "name": "setContractURI",
      "outputs": [],
      "stateMutability": "nonpayable",
      "type": "function"
    },
    {
      "inputs": [
        {
          "internalType": "bytes4",
          "name": "interfaceId",
          "type": "bytes4"
        }
      ],
      "name": "supportsInterface",
      "outputs": [
        {
          "internalType": "bool",
          "name": "",
          "type": "bool"
        }
      ],
      "stateMutability": "view",
      "type": "function"
    },
    {
      "inputs": [
        {
          "internalType": "address",
          "name": "newOwner",
          "type": "address"
        }
      ],
      "name": "transferOwnership",
      "outputs": [],
      "stateMutability": "nonpayable",
      "type": "function"
    },
    {
      "inputs": [
        {
          "internalType": "address",
          "name": "_address",
          "type": "address"
        },
        {
          "internalType": "bool",
          "name": "_isAdmin",
          "type": "bool"
        }
      ],
      "name": "updateAdminRole",
      "outputs": [],
      "stateMutability": "nonpayable",
      "type": "function"
    },
    {
      "inputs": [
        {
          "internalType": "uint256",
          "name": "_badgeId",
          "type": "uint256"
        },
        {
          "internalType": "string",
          "name": "_title",
          "type": "string"
        },
        {
          "internalType": "string",
          "name": "_description",
          "type": "string"
        },
        {
          "internalType": "string",
          "name": "_imageHash",
          "type": "string"
        }
      ],
      "name": "updateBadgeType",
      "outputs": [],
      "stateMutability": "nonpayable",
      "type": "function"
    },
    {
      "inputs": [
        {
          "internalType": "uint256",
          "name": "_badgeId",
          "type": "uint256"
        }
      ],
      "name": "uri",
      "outputs": [
        {
          "internalType": "string",
          "name": "badgeURI",
          "type": "string"
        }
      ],
      "stateMutability": "view",
      "type": "function"
    }
  ],
  "bytecode": "0x608060405234801561001057600080fd5b50612c5a806100206000396000f3fe608060405234801561001057600080fd5b50600436106101b75760003560e01c80637b5455df116100f9578063c421793211610097578063e8a3d48511610071578063e8a3d485146103bc578063e985e9c5146103c4578063f242432a146103d7578063f2fde38b146103e557600080fd5b8063c42179321461038e578063c75a752b14610396578063e42bff66146103a957600080fd5b806398e36d8b116100d357806398e36d8b14610338578063a22cb4651461035a578063c0f7df7714610368578063c25373721461037b57600080fd5b80637b5455df146102f75780638da5cb5b1461030a578063938e3d7b1461032557600080fd5b8063429b62e51161016657806355de28ae1161014057806355de28ae146102b65780635dbfd1d5146102c9578063715018a6146102dc57806374e8dc2c146102e457600080fd5b8063429b62e5146102605780634cd88b76146102835780634e1273f41461029657600080fd5b80630e89341c116101975780630e89341c1461021a5780632eb2c2d61461023a5780633d7c8d8e1461024d57600080fd5b8062ede9a6146101bc578062fdd58e146101d157806301ffc9a7146101f7575b600080fd5b6101cf6101ca366004611d3f565b6103f8565b005b6101e46101df366004611dc7565b61050e565b6040519081526020015b60405180910390f35b61020a610205366004611e07565b6105bc565b60405190151581526020016101ee565b61022d610228366004611e2b565b6105fa565b6040516101ee9190611ea0565b6101cf610248366004611fff565b610879565b61022d61025b366004611e2b565b6108ab565b61020a61026e3660046120a9565b60cb6020526000908152604090205460ff1681565b6101cf6102913660046120c4565b610924565b6102a96102a4366004612128565b610a98565b6040516101ee91906121e9565b6101cf6102c4366004611e2b565b610bd6565b61022d6102d7366004611e2b565b610bed565b6101cf610c4b565b6101cf6102f236600461226f565b610c5f565b6101cf610305366004611dc7565b610de6565b6033546040516001600160a01b0390911681526020016101ee565b6101cf610333366004612313565b610e29565b61034b610346366004611e2b565b610e44565b6040516101ee93929190612350565b6101cf610248366004612393565b6101cf610376366004611d3f565b610ffe565b6101cf610389366004612393565b61110a565b61022d61113d565b6101cf6103a436600461226f565b6111cb565b6101cf6103b7366004611dc7565b6111fb565b61022d611284565b61020a6103d23660046123cf565b6112ac565b6101cf610248366004612402565b6101cf6103f33660046120a9565b6112de565b33600090815260cb602052604090205460ff1661042857604051633057182d60e21b815260040160405180910390fd5b80831461044857604051631e2c434f60e01b815260040160405180910390fd5b60005b8381101561050757600083838381811061046757610467612467565b90506020020135905060cc600082815260200190815260200160002060000180546104919061247d565b151590506104b25760405163a32ee77b60e01b815260040160405180910390fd5b6104f48686848181106104c7576104c7612467565b90506020020160208101906104dc91906120a9565b8260016040518060200160405280600081525061136b565b50806104ff816124c8565b91505061044b565b5050505050565b60006001600160a01b0383166105915760405162461bcd60e51b815260206004820152602a60248201527f455243313135353a2061646472657373207a65726f206973206e6f742061207660448201527f616c6964206f776e65720000000000000000000000000000000000000000000060648201526084015b60405180910390fd5b5060008181526097602090815260408083206001600160a01b03861684529091529020545b92915050565b60006001600160e01b031982167fe8a3d4850000000000000000000000000000000000000000000000000000000014806105b657506105b68261149d565b600081815260cc60205260409020805460609183916106189061247d565b151590506106395760405163a32ee77b60e01b815260040160405180910390fd5b600083815260cc60205260408082208151606081019092528054829082906106609061247d565b80601f016020809104026020016040519081016040528092919081815260200182805461068c9061247d565b80156106d95780601f106106ae576101008083540402835291602001916106d9565b820191906000526020600020905b8154815290600101906020018083116106bc57829003601f168201915b505050505081526020016001820180546106f29061247d565b80601f016020809104026020016040519081016040528092919081815260200182805461071e9061247d565b801561076b5780601f106107405761010080835404028352916020019161076b565b820191906000526020600020905b81548152906001019060200180831161074e57829003601f168201915b505050505081526020016002820180546107849061247d565b80601f01602080910402602001604051908101604052809291908181526020018280546107b09061247d565b80156107fd5780601f106107d2576101008083540402835291602001916107fd565b820191906000526020600020905b8154815290600101906020018083116107e057829003601f168201915b50505050508152505090506108518160000151826020015160ca610820886108ab565b61082989610bed565b60405160200161083d95949392919061256e565b604051602081830303815290604052611538565b604051602001610861919061271c565b60405160208183030381529060405292505050919050565b6040517f399a360000000000000000000000000000000000000000000000000000000000815260040160405180910390fd5b600081815260cc60205260409020805460609183916108c99061247d565b151590506108ea5760405163a32ee77b60e01b815260040160405180910390fd5b600083815260cc6020908152604091829020915161090c926002019101612761565b60405160208183030381529060405291505b50919050565b600054610100900460ff16158080156109445750600054600160ff909116105b8061095e5750303b15801561095e575060005460ff166001145b6109d05760405162461bcd60e51b815260206004820152602e60248201527f496e697469616c697a61626c653a20636f6e747261637420697320616c72656160448201527f647920696e697469616c697a65640000000000000000000000000000000000006064820152608401610588565b6000805460ff1916600117905580156109f3576000805461ff0019166101001790555b610a0b604051806020016040528060008152506116d5565b8251610a1e9060c9906020860190611c5a565b508151610a329060ca906020850190611c5a565b5033600090815260cb60205260409020805460ff191660011790558015610a93576000805461ff0019169055604051600181527f7f26b83ff96e1f2b6a682f133852f6798a09c465da95921460cefb38474024989060200160405180910390a15b505050565b60608151835114610b115760405162461bcd60e51b815260206004820152602960248201527f455243313135353a206163636f756e747320616e6420696473206c656e67746860448201527f206d69736d6174636800000000000000000000000000000000000000000000006064820152608401610588565b6000835167ffffffffffffffff811115610b2d57610b2d611eb3565b604051908082528060200260200182016040528015610b56578160200160208202803683370190505b50905060005b8451811015610bce57610ba1858281518110610b7a57610b7a612467565b6020026020010151858381518110610b9457610b94612467565b602002602001015161050e565b828281518110610bb357610bb3612467565b6020908102919091010152610bc7816124c8565b9050610b5c565b509392505050565b610bea3382610be5338561050e565b611749565b50565b600081815260cc6020526040902080546060918391610c0b9061247d565b15159050610c2c5760405163a32ee77b60e01b815260040160405180910390fd5b600083815260cc6020908152604091829020915161090c929101612793565b610c536118fb565b610c5d6000611955565b565b33600090815260cb602052604090205460ff16610c8f57604051633057182d60e21b815260040160405180910390fd5b600087815260cc602052604090208054610ca89061247d565b159050610cc85760405163ed96c68160e01b815260040160405180910390fd5b604051806060016040528087878080601f016020809104026020016040519081016040528093929190818152602001838380828437600092019190915250505090825250604080516020601f880181900481028201810190925286815291810191908790879081908401838280828437600092019190915250505090825250604080516020601f860181900481028201810190925284815291810191908590859081908401838280828437600092018290525093909452505089815260cc6020908152604090912083518051919350610da5928492910190611c5a565b506020828101518051610dbe9260018501920190611c5a565b5060408201518051610dda916002840191602090910190611c5a565b50505050505050505050565b33600090815260cb602052604090205460ff16610e1657604051633057182d60e21b815260040160405180910390fd5b610e258282610be5858561050e565b5050565b610e316118fb565b8051610e259060c9906020840190611c5a565b60cc60205260009081526040902080548190610e5f9061247d565b80601f0160208091040260200160405190810160405280929190818152602001828054610e8b9061247d565b8015610ed85780601f10610ead57610100808354040283529160200191610ed8565b820191906000526020600020905b815481529060010190602001808311610ebb57829003601f168201915b505050505090806001018054610eed9061247d565b80601f0160208091040260200160405190810160405280929190818152602001828054610f199061247d565b8015610f665780601f10610f3b57610100808354040283529160200191610f66565b820191906000526020600020905b815481529060010190602001808311610f4957829003601f168201915b505050505090806002018054610f7b9061247d565b80601f0160208091040260200160405190810160405280929190818152602001828054610fa79061247d565b8015610ff45780601f10610fc957610100808354040283529160200191610ff4565b820191906000526020600020905b815481529060010190602001808311610fd757829003601f168201915b5050505050905083565b33600090815260cb602052604090205460ff1661102e57604051633057182d60e21b815260040160405180910390fd5b82811461104e57604051631e2c434f60e01b815260040160405180910390fd5b60005b8381101561050757600085858381811061106d5761106d612467565b90506020020135905060cc600082815260200190815260200160002060000180546110979061247d565b1590506110b75760405163ed96c68160e01b815260040160405180910390fd5b8383838181106110c9576110c9612467565b90506020028101906110db9190612818565b600082815260cc602052604090206110f38282612985565b905050508080611102906124c8565b915050611051565b6111126118fb565b6001600160a01b0391909116600090815260cb60205260409020805460ff1916911515919091179055565b60c9805461114a9061247d565b80601f01602080910402602001604051908101604052809291908181526020018280546111769061247d565b80156111c35780601f10611198576101008083540402835291602001916111c3565b820191906000526020600020905b8154815290600101906020018083116111a657829003601f168201915b505050505081565b33600090815260cb602052604090205460ff16610cc857604051633057182d60e21b815260040160405180910390fd5b33600090815260cb602052604090205460ff1661122b57604051633057182d60e21b815260040160405180910390fd5b600081815260cc6020526040902080548291906112479061247d565b151590506112685760405163a32ee77b60e01b815260040160405180910390fd5b610a93838360016040518060200160405280600081525061136b565b606060c96040516020016112989190612761565b604051602081830303815290604052905090565b6001600160a01b038116600090815260cb602052604081205460ff16156112d5575060016105b6565b50600092915050565b6112e66118fb565b6001600160a01b0381166113625760405162461bcd60e51b815260206004820152602660248201527f4f776e61626c653a206e6577206f776e657220697320746865207a65726f206160448201527f64647265737300000000000000000000000000000000000000000000000000006064820152608401610588565b610bea81611955565b6001600160a01b0384166113e75760405162461bcd60e51b815260206004820152602160248201527f455243313135353a206d696e7420746f20746865207a65726f2061646472657360448201527f73000000000000000000000000000000000000000000000000000000000000006064820152608401610588565b3360006113f3856119bf565b90506000611400856119bf565b905060008681526097602090815260408083206001600160a01b038b16845290915281208054879290611434908490612a85565b909155505060408051878152602081018790526001600160a01b03808a1692600092918716917fc3d58168c5ae7397731d063d5bbf3d657854427343f4c083240f7aacaa2d0f62910160405180910390a461149483600089898989611a12565b50505050505050565b60006001600160e01b031982167fd9b67a2600000000000000000000000000000000000000000000000000000000148061150057506001600160e01b031982167f0e89341c00000000000000000000000000000000000000000000000000000000145b806105b657507f01ffc9a7000000000000000000000000000000000000000000000000000000006001600160e01b03198316146105b6565b606081516000141561155857505060408051602081019091526000815290565b6000604051806060016040528060408152602001612be560409139905060006003845160026115879190612a85565b6115919190612a9d565b61159c906004612abf565b905060006115ab826020612a85565b67ffffffffffffffff8111156115c3576115c3611eb3565b6040519080825280601f01601f1916602001820160405280156115ed576020820181803683370190505b509050818152600183018586518101602084015b81831015611659576003830192508251603f8160121c168501518253600182019150603f81600c1c168501518253600182019150603f8160061c168501518253600182019150603f8116850151825350600101611601565b600389510660018114611673576002811461169f576116c7565b7f3d3d0000000000000000000000000000000000000000000000000000000000006001198301526116c7565b7f3d000000000000000000000000000000000000000000000000000000000000006000198301525b509398975050505050505050565b600054610100900460ff166117405760405162461bcd60e51b815260206004820152602b60248201527f496e697469616c697a61626c653a20636f6e7472616374206973206e6f74206960448201526a6e697469616c697a696e6760a81b6064820152608401610588565b610bea81611bdc565b6001600160a01b0383166117c55760405162461bcd60e51b815260206004820152602360248201527f455243313135353a206275726e2066726f6d20746865207a65726f206164647260448201527f65737300000000000000000000000000000000000000000000000000000000006064820152608401610588565b3360006117d1846119bf565b905060006117de846119bf565b6040805160208082018352600091829052888252609781528282206001600160a01b038b16835290522054909150848110156118815760405162461bcd60e51b8152602060048201526024808201527f455243313135353a206275726e20616d6f756e7420657863656564732062616c60448201527f616e6365000000000000000000000000000000000000000000000000000000006064820152608401610588565b60008681526097602090815260408083206001600160a01b038b81168086529184528285208a8703905582518b81529384018a90529092908816917fc3d58168c5ae7397731d063d5bbf3d657854427343f4c083240f7aacaa2d0f62910160405180910390a4604080516020810190915260009052611494565b6033546001600160a01b03163314610c5d5760405162461bcd60e51b815260206004820181905260248201527f4f776e61626c653a2063616c6c6572206973206e6f7420746865206f776e65726044820152606401610588565b603380546001600160a01b038381167fffffffffffffffffffffffff0000000000000000000000000000000000000000831681179093556040519116919082907f8be0079c531659141344cd1fd0a4f28419497f9722a3daafe3b4186f6b6457e090600090a35050565b604080516001808252818301909252606091600091906020808301908036833701905050905082816000815181106119f9576119f9612467565b602090810291909101015292915050565b505050505050565b6001600160a01b0384163b15611a0a5760405163f23a6e6160e01b81526001600160a01b0385169063f23a6e6190611a569089908990889088908890600401612ade565b602060405180830381600087803b158015611a7057600080fd5b505af1925050508015611aa0575060408051601f3d908101601f19168201909252611a9d91810190612b21565b60015b611b5657611aac612b3e565b806308c379a01415611ae65750611ac1612b5a565b80611acc5750611ae8565b8060405162461bcd60e51b81526004016105889190611ea0565b505b60405162461bcd60e51b815260206004820152603460248201527f455243313135353a207472616e7366657220746f206e6f6e204552433131353560448201527f526563656976657220696d706c656d656e7465720000000000000000000000006064820152608401610588565b6001600160e01b0319811663f23a6e6160e01b146114945760405162461bcd60e51b815260206004820152602860248201527f455243313135353a204552433131353552656365697665722072656a6563746560448201527f6420746f6b656e730000000000000000000000000000000000000000000000006064820152608401610588565b600054610100900460ff16611c475760405162461bcd60e51b815260206004820152602b60248201527f496e697469616c697a61626c653a20636f6e7472616374206973206e6f74206960448201526a6e697469616c697a696e6760a81b6064820152608401610588565b610bea818051610e259060999060208401905b828054611c669061247d565b90600052602060002090601f016020900481019282611c885760008555611cce565b82601f10611ca157805160ff1916838001178555611cce565b82800160010185558215611cce579182015b82811115611cce578251825591602001919060010190611cb3565b50611cda929150611cde565b5090565b5b80821115611cda5760008155600101611cdf565b60008083601f840112611d0557600080fd5b50813567ffffffffffffffff811115611d1d57600080fd5b6020830191508360208260051b8501011115611d3857600080fd5b9250929050565b60008060008060408587031215611d5557600080fd5b843567ffffffffffffffff80821115611d6d57600080fd5b611d7988838901611cf3565b90965094506020870135915080821115611d9257600080fd5b50611d9f87828801611cf3565b95989497509550505050565b80356001600160a01b0381168114611dc257600080fd5b919050565b60008060408385031215611dda57600080fd5b611de383611dab565b946020939093013593505050565b6001600160e01b031981168114610bea57600080fd5b600060208284031215611e1957600080fd5b8135611e2481611df1565b9392505050565b600060208284031215611e3d57600080fd5b5035919050565b60005b83811015611e5f578181015183820152602001611e47565b83811115611e6e576000848401525b50505050565b60008151808452611e8c816020860160208601611e44565b601f01601f19169290920160200192915050565b602081526000611e246020830184611e74565b634e487b7160e01b600052604160045260246000fd5b601f8201601f1916810167ffffffffffffffff81118282101715611eef57611eef611eb3565b6040525050565b600067ffffffffffffffff821115611f1057611f10611eb3565b5060051b60200190565b600082601f830112611f2b57600080fd5b81356020611f3882611ef6565b604051611f458282611ec9565b83815260059390931b8501820192828101915086841115611f6557600080fd5b8286015b84811015611f805780358352918301918301611f69565b509695505050505050565b600082601f830112611f9c57600080fd5b813567ffffffffffffffff811115611fb657611fb6611eb3565b604051611fcd601f8301601f191660200182611ec9565b818152846020838601011115611fe257600080fd5b816020850160208301376000918101602001919091529392505050565b600080600080600060a0868803121561201757600080fd5b61202086611dab565b945061202e60208701611dab565b9350604086013567ffffffffffffffff8082111561204b57600080fd5b61205789838a01611f1a565b9450606088013591508082111561206d57600080fd5b61207989838a01611f1a565b9350608088013591508082111561208f57600080fd5b5061209c88828901611f8b565b9150509295509295909350565b6000602082840312156120bb57600080fd5b611e2482611dab565b600080604083850312156120d757600080fd5b823567ffffffffffffffff808211156120ef57600080fd5b6120fb86838701611f8b565b9350602085013591508082111561211157600080fd5b5061211e85828601611f8b565b9150509250929050565b6000806040838503121561213b57600080fd5b823567ffffffffffffffff8082111561215357600080fd5b818501915085601f83011261216757600080fd5b8135602061217482611ef6565b6040516121818282611ec9565b83815260059390931b85018201928281019150898411156121a157600080fd5b948201945b838610156121c6576121b786611dab565b825294820194908201906121a6565b965050860135925050808211156121dc57600080fd5b5061211e85828601611f1a565b6020808252825182820181905260009190848201906040850190845b8181101561222157835183529284019291840191600101612205565b50909695505050505050565b60008083601f84011261223f57600080fd5b50813567ffffffffffffffff81111561225757600080fd5b602083019150836020828501011115611d3857600080fd5b60008060008060008060006080888a03121561228a57600080fd5b87359650602088013567ffffffffffffffff808211156122a957600080fd5b6122b58b838c0161222d565b909850965060408a01359150808211156122ce57600080fd5b6122da8b838c0161222d565b909650945060608a01359150808211156122f357600080fd5b506123008a828b0161222d565b989b979a50959850939692959293505050565b60006020828403121561232557600080fd5b813567ffffffffffffffff81111561233c57600080fd5b61234884828501611f8b565b949350505050565b6060815260006123636060830186611e74565b82810360208401526123758186611e74565b905082810360408401526123898185611e74565b9695505050505050565b600080604083850312156123a657600080fd5b6123af83611dab565b9150602083013580151581146123c457600080fd5b809150509250929050565b600080604083850312156123e257600080fd5b6123eb83611dab565b91506123f960208401611dab565b90509250929050565b600080600080600060a0868803121561241a57600080fd5b61242386611dab565b945061243160208701611dab565b93506040860135925060608601359150608086013567ffffffffffffffff81111561245b57600080fd5b61209c88828901611f8b565b634e487b7160e01b600052603260045260246000fd5b600181811c9082168061249157607f821691505b6020821081141561091e57634e487b7160e01b600052602260045260246000fd5b634e487b7160e01b600052601160045260246000fd5b60006000198214156124dc576124dc6124b2565b5060010190565b600081516124f5818560208601611e44565b9290920192915050565b6000815461250c8161247d565b60018281168015612524576001811461253557612564565b60ff19841687528287019450612564565b8560005260208060002060005b8581101561255b5781548a820152908401908201612542565b50505082870194505b5050505092915050565b7f7b226e616d65223a2200000000000000000000000000000000000000000000008152600086516125a6816009850160208b01611e44565b7f222c226465736372697074696f6e223a2200000000000000000000000000000060099184019182015286516125e381601a840160208b01611e44565b8082019150507f5c6e5c6e0000000000000000000000000000000000000000000000000000000080601a83015261261d601e8301886124ff565b9150808252507f5b4120426164676572206d616e6167656420746f6b656e2e5d2868747470733a60048201527f2f2f6261646765722e75746332342e696f2f290000000000000000000000000060248201527f222c22696d616765223a22000000000000000000000000000000000000000000603782015284516126a8816042840160208901611e44565b61270f6126e66126e06042848601017f222c2261747472696275746573223a5b00000000000000000000000000000000815260100190565b876124e3565b7f5d7d000000000000000000000000000000000000000000000000000000000000815260020190565b9998505050505050505050565b7f646174613a6170706c69636174696f6e2f6a736f6e3b6261736536342c00000081526000825161275481601d850160208701611e44565b91909101601d0192915050565b7f697066733a2f2f0000000000000000000000000000000000000000000000000081526000611e2460078301846124ff565b7f7b2274726169745f74797065223a224261646765205469746c65222c2276616c81527f7565223a22000000000000000000000000000000000000000000000000000000602082015260006127eb60258301846124ff565b7f227d00000000000000000000000000000000000000000000000000000000000081526002019392505050565b60008235605e1983360301811261282e57600080fd5b9190910192915050565b6000808335601e1984360301811261284f57600080fd5b83018035915067ffffffffffffffff82111561286a57600080fd5b602001915036819003821315611d3857600080fd5b601f821115610a9357600081815260208120601f850160051c810160208610156128a65750805b601f850160051c820191505b81811015611a0a578281556001016128b2565b67ffffffffffffffff8311156128dd576128dd611eb3565b6128f1836128eb835461247d565b8361287f565b6000601f841160018114612925576000851561290d5750838201355b600019600387901b1c1916600186901b178355610507565b600083815260209020601f19861690835b828110156129565786850135825560209485019460019092019101612936565b50868210156129735760001960f88860031b161c19848701351681555b505060018560011b0183555050505050565b61298f8283612838565b67ffffffffffffffff8111156129a7576129a7611eb3565b6129bb816129b5855461247d565b8561287f565b6000601f8211600181146129ef57600083156129d75750838201355b600019600385901b1c1916600184901b178555612a49565b600085815260209020601f19841690835b82811015612a205786850135825560209485019460019092019101612a00565b5084821015612a3d5760001960f88660031b161c19848701351681555b505060018360011b0185555b50505050612a5a6020830183612838565b612a688183600186016128c5565b5050612a776040830183612838565b611e6e8183600286016128c5565b60008219821115612a9857612a986124b2565b500190565b600082612aba57634e487b7160e01b600052601260045260246000fd5b500490565b6000816000190483118215151615612ad957612ad96124b2565b500290565b60006001600160a01b03808816835280871660208401525084604083015283606083015260a06080830152612b1660a0830184611e74565b979650505050505050565b600060208284031215612b3357600080fd5b8151611e2481611df1565b600060033d1115612b575760046000803e5060005160e01c5b90565b600060443d1015612b685790565b6040516003193d81016004833e81513d67ffffffffffffffff8160248401118184111715612b9857505050505090565b8285019150815181811115612bb05750505050505090565b843d8701016020828501011115612bca5750505050505090565b612bd960208286010187611ec9565b50909594505050505056fe4142434445464748494a4b4c4d4e4f505152535455565758595a6162636465666768696a6b6c6d6e6f707172737475767778797a303132333435363738392b2fa264697066735822122026133ac40e13feaaedc539f96878f4be1f8a99b0a73ba1c92b86d4d92288984c64736f6c63430008090033",
  "linkReferences": {},
  "deployedLinkReferences": {}
}