{
  "_format": "hh-sol-artifact-1",
  "contractName": "BadgerSet",
  "sourceName": "contracts/Badger/BadgeSet/BadgerSet.sol",
  "abi": [
    {
      "inputs": [],
      "name": "AdminOnly",
      "type": "error"
    },
    {
      "inputs": [],
      "name": "BadgeDoesNotExist",
      "type": "error"
    },
    {
      "inputs": [],
      "name": "BadgeExists",
      "type": "error"
    },
    {
      "inputs": [],
      "name": "BadgesAreBoundToAddress",
      "type": "error"
    },
    {
      "inputs": [],
      "name": "BundleLengthsInvalid",
      "type": "error"
    },
    {
      "anonymous": false,
      "inputs": [
        {
          "indexed": true,
          "internalType": "address",
          "name": "account",
          "type": "address"
        },
        {
          "indexed": true,
          "internalType": "address",
          "name": "operator",
          "type": "address"
        },
        {
          "indexed": false,
          "internalType": "bool",
          "name": "approved",
          "type": "bool"
        }
      ],
      "name": "ApprovalForAll",
      "type": "event"
    },
    {
      "anonymous": false,
      "inputs": [
        {
          "indexed": false,
          "internalType": "uint8",
          "name": "version",
          "type": "uint8"
        }
      ],
      "name": "Initialized",
      "type": "event"
    },
    {
      "anonymous": false,
      "inputs": [
        {
          "indexed": true,
          "internalType": "address",
          "name": "previousOwner",
          "type": "address"
        },
        {
          "indexed": true,
          "internalType": "address",
          "name": "newOwner",
          "type": "address"
        }
      ],
      "name": "OwnershipTransferred",
      "type": "event"
    },
    {
      "anonymous": false,
      "inputs": [
        {
          "indexed": true,
          "internalType": "address",
          "name": "operator",
          "type": "address"
        },
        {
          "indexed": true,
          "internalType": "address",
          "name": "from",
          "type": "address"
        },
        {
          "indexed": true,
          "internalType": "address",
          "name": "to",
          "type": "address"
        },
        {
          "indexed": false,
          "internalType": "uint256[]",
          "name": "ids",
          "type": "uint256[]"
        },
        {
          "indexed": false,
          "internalType": "uint256[]",
          "name": "values",
          "type": "uint256[]"
        }
      ],
      "name": "TransferBatch",
      "type": "event"
    },
    {
      "anonymous": false,
      "inputs": [
        {
          "indexed": true,
          "internalType": "address",
          "name": "operator",
          "type": "address"
        },
        {
          "indexed": true,
          "internalType": "address",
          "name": "from",
          "type": "address"
        },
        {
          "indexed": true,
          "internalType": "address",
          "name": "to",
          "type": "address"
        },
        {
          "indexed": false,
          "internalType": "uint256",
          "name": "id",
          "type": "uint256"
        },
        {
          "indexed": false,
          "internalType": "uint256",
          "name": "value",
          "type": "uint256"
        }
      ],
      "name": "TransferSingle",
      "type": "event"
    },
    {
      "anonymous": false,
      "inputs": [
        {
          "indexed": false,
          "internalType": "string",
          "name": "value",
          "type": "string"
        },
        {
          "indexed": true,
          "internalType": "uint256",
          "name": "id",
          "type": "uint256"
        }
      ],
      "name": "URI",
      "type": "event"
    },
    {
      "inputs": [
        {
          "internalType": "address",
          "name": "",
          "type": "address"
        }
      ],
      "name": "admins",
      "outputs": [
        {
          "internalType": "bool",
          "name": "",
          "type": "bool"
        }
      ],
      "stateMutability": "view",
      "type": "function"
    },
    {
      "inputs": [
        {
          "internalType": "uint256",
          "name": "_badgeId",
          "type": "uint256"
        }
      ],
      "name": "badgeImage",
      "outputs": [
        {
          "internalType": "string",
          "name": "imageString",
          "type": "string"
        }
      ],
      "stateMutability": "view",
      "type": "function"
    },
    {
      "inputs": [
        {
          "internalType": "uint256",
          "name": "_badgeId",
          "type": "uint256"
        }
      ],
      "name": "badgeTraits",
      "outputs": [
        {
          "internalType": "string",
          "name": "traitString",
          "type": "string"
        }
      ],
      "stateMutability": "view",
      "type": "function"
    },
    {
      "inputs": [
        {
          "internalType": "uint256",
          "name": "",
          "type": "uint256"
        }
      ],
      "name": "badges",
      "outputs": [
        {
          "internalType": "string",
          "name": "title",
          "type": "string"
        },
        {
          "internalType": "string",
          "name": "description",
          "type": "string"
        },
        {
          "internalType": "string",
          "name": "imageHash",
          "type": "string"
        }
      ],
      "stateMutability": "view",
      "type": "function"
    },
    {
      "inputs": [
        {
          "internalType": "address",
          "name": "account",
          "type": "address"
        },
        {
          "internalType": "uint256",
          "name": "id",
          "type": "uint256"
        }
      ],
      "name": "balanceOf",
      "outputs": [
        {
          "internalType": "uint256",
          "name": "",
          "type": "uint256"
        }
      ],
      "stateMutability": "view",
      "type": "function"
    },
    {
      "inputs": [
        {
          "internalType": "address[]",
          "name": "accounts",
          "type": "address[]"
        },
        {
          "internalType": "uint256[]",
          "name": "ids",
          "type": "uint256[]"
        }
      ],
      "name": "balanceOfBatch",
      "outputs": [
        {
          "internalType": "uint256[]",
          "name": "",
          "type": "uint256[]"
        }
      ],
      "stateMutability": "view",
      "type": "function"
    },
    {
      "inputs": [
        {
          "internalType": "uint256",
          "name": "_badgeId",
          "type": "uint256"
        }
      ],
      "name": "burnBadge",
      "outputs": [],
      "stateMutability": "nonpayable",
      "type": "function"
    },
    {
      "inputs": [],
      "name": "contractURI",
      "outputs": [
        {
          "internalType": "string",
          "name": "",
          "type": "string"
        }
      ],
      "stateMutability": "view",
      "type": "function"
    },
    {
      "inputs": [],
      "name": "contractURIHash",
      "outputs": [
        {
          "internalType": "string",
          "name": "",
          "type": "string"
        }
      ],
      "stateMutability": "view",
      "type": "function"
    },
    {
      "inputs": [
        {
          "internalType": "uint256",
          "name": "_badgeId",
          "type": "uint256"
        },
        {
          "internalType": "string",
          "name": "_title",
          "type": "string"
        },
        {
          "internalType": "string",
          "name": "_description",
          "type": "string"
        },
        {
          "internalType": "string",
          "name": "_imageHash",
          "type": "string"
        }
      ],
      "name": "createBadgeType",
      "outputs": [],
      "stateMutability": "nonpayable",
      "type": "function"
    },
    {
      "inputs": [
        {
          "internalType": "uint256[]",
          "name": "_badgeIds",
          "type": "uint256[]"
        },
        {
          "components": [
            {
              "internalType": "string",
              "name": "title",
              "type": "string"
            },
            {
              "internalType": "string",
              "name": "description",
              "type": "string"
            },
            {
              "internalType": "string",
              "name": "imageHash",
              "type": "string"
            }
          ],
          "internalType": "struct BadgerSet.Badge[]",
          "name": "_badges",
          "type": "tuple[]"
        }
      ],
      "name": "createBadgeTypeBundle",
      "outputs": [],
      "stateMutability": "nonpayable",
      "type": "function"
    },
    {
      "inputs": [
        {
          "internalType": "string",
          "name": "_contractURI",
          "type": "string"
        },
        {
          "internalType": "string",
          "name": "_collectionDescription",
          "type": "string"
        },
        {
          "components": [
            {
              "internalType": "string",
              "name": "title",
              "type": "string"
            },
            {
              "internalType": "string",
              "name": "description",
              "type": "string"
            },
            {
              "internalType": "string",
              "name": "imageHash",
              "type": "string"
            }
          ],
          "internalType": "struct BadgerSet.Badge[]",
          "name": "_badges",
          "type": "tuple[]"
        }
      ],
      "name": "initialize",
      "outputs": [],
      "stateMutability": "nonpayable",
      "type": "function"
    },
    {
      "inputs": [
        {
          "internalType": "address",
          "name": "account",
          "type": "address"
        },
        {
          "internalType": "address",
          "name": "operator",
          "type": "address"
        }
      ],
      "name": "isApprovedForAll",
      "outputs": [
        {
          "internalType": "bool",
          "name": "",
          "type": "bool"
        }
      ],
      "stateMutability": "view",
      "type": "function"
    },
    {
      "inputs": [
        {
          "internalType": "address",
          "name": "_to",
          "type": "address"
        },
        {
          "internalType": "uint256",
          "name": "_badgeId",
          "type": "uint256"
        }
      ],
      "name": "mintBadge",
      "outputs": [],
      "stateMutability": "nonpayable",
      "type": "function"
    },
    {
      "inputs": [
        {
          "internalType": "address[]",
          "name": "_addresses",
          "type": "address[]"
        },
        {
          "internalType": "uint256[]",
          "name": "_badgeIds",
          "type": "uint256[]"
        }
      ],
      "name": "mintBadgeBundle",
      "outputs": [],
      "stateMutability": "nonpayable",
      "type": "function"
    },
    {
      "inputs": [],
      "name": "owner",
      "outputs": [
        {
          "internalType": "address",
          "name": "",
          "type": "address"
        }
      ],
      "stateMutability": "view",
      "type": "function"
    },
    {
      "inputs": [],
      "name": "renounceOwnership",
      "outputs": [],
      "stateMutability": "nonpayable",
      "type": "function"
    },
    {
      "inputs": [
        {
          "internalType": "address",
          "name": "_from",
          "type": "address"
        },
        {
          "internalType": "uint256",
          "name": "_badgeId",
          "type": "uint256"
        }
      ],
      "name": "revokeBadge",
      "outputs": [],
      "stateMutability": "nonpayable",
      "type": "function"
    },
    {
      "inputs": [
        {
          "internalType": "address",
          "name": "from",
          "type": "address"
        },
        {
          "internalType": "address",
          "name": "to",
          "type": "address"
        },
        {
          "internalType": "uint256[]",
          "name": "ids",
          "type": "uint256[]"
        },
        {
          "internalType": "uint256[]",
          "name": "amounts",
          "type": "uint256[]"
        },
        {
          "internalType": "bytes",
          "name": "data",
          "type": "bytes"
        }
      ],
      "name": "safeBatchTransferFrom",
      "outputs": [],
      "stateMutability": "nonpayable",
      "type": "function"
    },
    {
      "inputs": [
        {
          "internalType": "address",
          "name": "from",
          "type": "address"
        },
        {
          "internalType": "address",
          "name": "to",
          "type": "address"
        },
        {
          "internalType": "uint256",
          "name": "id",
          "type": "uint256"
        },
        {
          "internalType": "uint256",
          "name": "amount",
          "type": "uint256"
        },
        {
          "internalType": "bytes",
          "name": "data",
          "type": "bytes"
        }
      ],
      "name": "safeTransferFrom",
      "outputs": [],
      "stateMutability": "nonpayable",
      "type": "function"
    },
    {
      "inputs": [
        {
          "internalType": "address",
          "name": "operator",
          "type": "address"
        },
        {
          "internalType": "bool",
          "name": "approved",
          "type": "bool"
        }
      ],
      "name": "setApprovalForAll",
      "outputs": [],
      "stateMutability": "nonpayable",
      "type": "function"
    },
    {
      "inputs": [
        {
          "internalType": "string",
          "name": "_contractURIHash",
          "type": "string"
        }
      ],
      "name": "setContractURI",
      "outputs": [],
      "stateMutability": "nonpayable",
      "type": "function"
    },
    {
      "inputs": [
        {
          "internalType": "bytes4",
          "name": "interfaceId",
          "type": "bytes4"
        }
      ],
      "name": "supportsInterface",
      "outputs": [
        {
          "internalType": "bool",
          "name": "",
          "type": "bool"
        }
      ],
      "stateMutability": "view",
      "type": "function"
    },
    {
      "inputs": [
        {
          "internalType": "address",
          "name": "newOwner",
          "type": "address"
        }
      ],
      "name": "transferOwnership",
      "outputs": [],
      "stateMutability": "nonpayable",
      "type": "function"
    },
    {
      "inputs": [
        {
          "internalType": "address",
          "name": "_address",
          "type": "address"
        },
        {
          "internalType": "bool",
          "name": "_isAdmin",
          "type": "bool"
        }
      ],
      "name": "updateAdminRole",
      "outputs": [],
      "stateMutability": "nonpayable",
      "type": "function"
    },
    {
      "inputs": [
        {
          "internalType": "uint256",
          "name": "_badgeId",
          "type": "uint256"
        },
        {
          "internalType": "string",
          "name": "_title",
          "type": "string"
        },
        {
          "internalType": "string",
          "name": "_description",
          "type": "string"
        },
        {
          "internalType": "string",
          "name": "_imageHash",
          "type": "string"
        }
      ],
      "name": "updateBadgeType",
      "outputs": [],
      "stateMutability": "nonpayable",
      "type": "function"
    },
    {
      "inputs": [
        {
          "internalType": "uint256",
          "name": "_badgeId",
          "type": "uint256"
        }
      ],
      "name": "uri",
      "outputs": [
        {
          "internalType": "string",
          "name": "badgeURI",
          "type": "string"
        }
      ],
      "stateMutability": "view",
      "type": "function"
    }
  ],
  "bytecode": "0x608060405234801561001057600080fd5b50612e42806100206000396000f3fe608060405234801561001057600080fd5b50600436106101b75760003560e01c80637b5455df116100f9578063c421793211610097578063e8a3d48511610071578063e8a3d485146103bc578063e985e9c5146103c4578063f242432a146103d7578063f2fde38b146103e557600080fd5b8063c42179321461038e578063c75a752b14610396578063e42bff66146103a957600080fd5b806398e36d8b116100d357806398e36d8b14610338578063a22cb4651461035a578063c0f7df7714610368578063c25373721461037b57600080fd5b80637b5455df146102f75780638da5cb5b1461030a578063938e3d7b1461032557600080fd5b8063429b62e51161016657806355de28ae1161014057806355de28ae146102b65780635dbfd1d5146102c9578063715018a6146102dc57806374e8dc2c146102e457600080fd5b8063429b62e5146102605780634e1273f4146102835780634e3873d3146102a357600080fd5b80630e89341c116101975780630e89341c1461021a5780632eb2c2d61461023a5780633d7c8d8e1461024d57600080fd5b8062ede9a6146101bc578062fdd58e146101d157806301ffc9a7146101f7575b600080fd5b6101cf6101ca366004611ddc565b6103f8565b005b6101e46101df366004611e64565b61050e565b6040519081526020015b60405180910390f35b61020a610205366004611ea4565b6105bc565b60405190151581526020016101ee565b61022d610228366004611ec8565b6105fa565b6040516101ee9190611f39565b6101cf6102483660046120be565b610879565b61022d61025b366004611ec8565b6108ab565b61020a61026e366004612168565b60cb6020526000908152604090205460ff1681565b610296610291366004612183565b610924565b6040516101ee919061224e565b6101cf6102b1366004612292565b610a62565b6101cf6102c4366004611ec8565b610c6e565b61022d6102d7366004611ec8565b610c85565b6101cf610ce3565b6101cf6102f2366004612457565b610cf7565b6101cf610305366004611e64565b610e7e565b6033546040516001600160a01b0390911681526020016101ee565b6101cf6103333660046124fb565b610ec1565b61034b610346366004611ec8565b610edc565b6040516101ee93929190612538565b6101cf61024836600461257b565b6101cf610376366004611ddc565b611096565b6101cf61038936600461257b565b6111a2565b61022d6111d5565b6101cf6103a4366004612457565b611263565b6101cf6103b7366004611e64565b611293565b61022d611321565b61020a6103d23660046125b7565b611349565b6101cf6102483660046125ea565b6101cf6103f3366004612168565b61137b565b33600090815260cb602052604090205460ff1661042857604051633057182d60e21b815260040160405180910390fd5b80831461044857604051631e2c434f60e01b815260040160405180910390fd5b60005b838110156105075760008383838181106104675761046761264f565b90506020020135905060cc6000828152602001908152602001600020600001805461049190612665565b151590506104b25760405163a32ee77b60e01b815260040160405180910390fd5b6104f48686848181106104c7576104c761264f565b90506020020160208101906104dc9190612168565b82600160405180602001604052806000815250611408565b50806104ff816126b0565b91505061044b565b5050505050565b60006001600160a01b0383166105915760405162461bcd60e51b815260206004820152602a60248201527f455243313135353a2061646472657373207a65726f206973206e6f742061207660448201527f616c6964206f776e65720000000000000000000000000000000000000000000060648201526084015b60405180910390fd5b5060008181526097602090815260408083206001600160a01b03861684529091529020545b92915050565b60006001600160e01b031982167fe8a3d4850000000000000000000000000000000000000000000000000000000014806105b657506105b68261153a565b600081815260cc602052604090208054606091839161061890612665565b151590506106395760405163a32ee77b60e01b815260040160405180910390fd5b600083815260cc602052604080822081516060810190925280548290829061066090612665565b80601f016020809104026020016040519081016040528092919081815260200182805461068c90612665565b80156106d95780601f106106ae576101008083540402835291602001916106d9565b820191906000526020600020905b8154815290600101906020018083116106bc57829003601f168201915b505050505081526020016001820180546106f290612665565b80601f016020809104026020016040519081016040528092919081815260200182805461071e90612665565b801561076b5780601f106107405761010080835404028352916020019161076b565b820191906000526020600020905b81548152906001019060200180831161074e57829003601f168201915b5050505050815260200160028201805461078490612665565b80601f01602080910402602001604051908101604052809291908181526020018280546107b090612665565b80156107fd5780601f106107d2576101008083540402835291602001916107fd565b820191906000526020600020905b8154815290600101906020018083116107e057829003601f168201915b50505050508152505090506108518160000151826020015160ca610820886108ab565b61082989610c85565b60405160200161083d959493929190612756565b6040516020818303038152906040526115d5565b6040516020016108619190612904565b60405160208183030381529060405292505050919050565b6040517f399a360000000000000000000000000000000000000000000000000000000000815260040160405180910390fd5b600081815260cc60205260409020805460609183916108c990612665565b151590506108ea5760405163a32ee77b60e01b815260040160405180910390fd5b600083815260cc6020908152604091829020915161090c926002019101612949565b60405160208183030381529060405291505b50919050565b6060815183511461099d5760405162461bcd60e51b815260206004820152602960248201527f455243313135353a206163636f756e747320616e6420696473206c656e67746860448201527f206d69736d6174636800000000000000000000000000000000000000000000006064820152608401610588565b6000835167ffffffffffffffff8111156109b9576109b9611f4c565b6040519080825280602002602001820160405280156109e2578160200160208202803683370190505b50905060005b8451811015610a5a57610a2d858281518110610a0657610a0661264f565b6020026020010151858381518110610a2057610a2061264f565b602002602001015161050e565b828281518110610a3f57610a3f61264f565b6020908102919091010152610a53816126b0565b90506109e8565b509392505050565b600054610100900460ff1615808015610a825750600054600160ff909116105b80610a9c5750303b158015610a9c575060005460ff166001145b610b0e5760405162461bcd60e51b815260206004820152602e60248201527f496e697469616c697a61626c653a20636f6e747261637420697320616c72656160448201527f647920696e697469616c697a65640000000000000000000000000000000000006064820152608401610588565b6000805460ff191660011790558015610b31576000805461ff0019166101001790555b610b4960405180602001604052806000815250611772565b8351610b5c9060c9906020870190611cf7565b508251610b709060ca906020860190611cf7565b5033600090815260cb60205260408120805460ff191660011790555b8251811015610c2157828181518110610ba757610ba761264f565b602090810291909101810151600083815260cc8352604090208151805192939192610bd59284920190611cf7565b506020828101518051610bee9260018501920190611cf7565b5060408201518051610c0a916002840191602090910190611cf7565b509050508080610c19906126b0565b915050610b8c565b508015610c68576000805461ff0019169055604051600181527f7f26b83ff96e1f2b6a682f133852f6798a09c465da95921460cefb38474024989060200160405180910390a15b50505050565b610c823382610c7d338561050e565b6117e6565b50565b600081815260cc6020526040902080546060918391610ca390612665565b15159050610cc45760405163a32ee77b60e01b815260040160405180910390fd5b600083815260cc6020908152604091829020915161090c92910161297b565b610ceb611998565b610cf560006119f2565b565b33600090815260cb602052604090205460ff16610d2757604051633057182d60e21b815260040160405180910390fd5b600087815260cc602052604090208054610d4090612665565b159050610d605760405163ed96c68160e01b815260040160405180910390fd5b604051806060016040528087878080601f016020809104026020016040519081016040528093929190818152602001838380828437600092019190915250505090825250604080516020601f880181900481028201810190925286815291810191908790879081908401838280828437600092019190915250505090825250604080516020601f860181900481028201810190925284815291810191908590859081908401838280828437600092018290525093909452505089815260cc6020908152604090912083518051919350610e3d928492910190611cf7565b506020828101518051610e569260018501920190611cf7565b5060408201518051610e72916002840191602090910190611cf7565b50505050505050505050565b33600090815260cb602052604090205460ff16610eae57604051633057182d60e21b815260040160405180910390fd5b610ebd8282610c7d858561050e565b5050565b610ec9611998565b8051610ebd9060c9906020840190611cf7565b60cc60205260009081526040902080548190610ef790612665565b80601f0160208091040260200160405190810160405280929190818152602001828054610f2390612665565b8015610f705780601f10610f4557610100808354040283529160200191610f70565b820191906000526020600020905b815481529060010190602001808311610f5357829003601f168201915b505050505090806001018054610f8590612665565b80601f0160208091040260200160405190810160405280929190818152602001828054610fb190612665565b8015610ffe5780601f10610fd357610100808354040283529160200191610ffe565b820191906000526020600020905b815481529060010190602001808311610fe157829003601f168201915b50505050509080600201805461101390612665565b80601f016020809104026020016040519081016040528092919081815260200182805461103f90612665565b801561108c5780601f106110615761010080835404028352916020019161108c565b820191906000526020600020905b81548152906001019060200180831161106f57829003601f168201915b5050505050905083565b33600090815260cb602052604090205460ff166110c657604051633057182d60e21b815260040160405180910390fd5b8281146110e657604051631e2c434f60e01b815260040160405180910390fd5b60005b838110156105075760008585838181106111055761110561264f565b90506020020135905060cc6000828152602001908152602001600020600001805461112f90612665565b15905061114f5760405163ed96c68160e01b815260040160405180910390fd5b8383838181106111615761116161264f565b90506020028101906111739190612a00565b600082815260cc6020526040902061118b8282612b6d565b90505050808061119a906126b0565b9150506110e9565b6111aa611998565b6001600160a01b0391909116600090815260cb60205260409020805460ff1916911515919091179055565b60c980546111e290612665565b80601f016020809104026020016040519081016040528092919081815260200182805461120e90612665565b801561125b5780601f106112305761010080835404028352916020019161125b565b820191906000526020600020905b81548152906001019060200180831161123e57829003601f168201915b505050505081565b33600090815260cb602052604090205460ff16610d6057604051633057182d60e21b815260040160405180910390fd5b33600090815260cb602052604090205460ff166112c357604051633057182d60e21b815260040160405180910390fd5b600081815260cc6020526040902080548291906112df90612665565b151590506113005760405163a32ee77b60e01b815260040160405180910390fd5b61131c8383600160405180602001604052806000815250611408565b505050565b606060c96040516020016113359190612949565b604051602081830303815290604052905090565b6001600160a01b038116600090815260cb602052604081205460ff1615611372575060016105b6565b50600092915050565b611383611998565b6001600160a01b0381166113ff5760405162461bcd60e51b815260206004820152602660248201527f4f776e61626c653a206e6577206f776e657220697320746865207a65726f206160448201527f64647265737300000000000000000000000000000000000000000000000000006064820152608401610588565b610c82816119f2565b6001600160a01b0384166114845760405162461bcd60e51b815260206004820152602160248201527f455243313135353a206d696e7420746f20746865207a65726f2061646472657360448201527f73000000000000000000000000000000000000000000000000000000000000006064820152608401610588565b33600061149085611a5c565b9050600061149d85611a5c565b905060008681526097602090815260408083206001600160a01b038b168452909152812080548792906114d1908490612c6d565b909155505060408051878152602081018790526001600160a01b03808a1692600092918716917fc3d58168c5ae7397731d063d5bbf3d657854427343f4c083240f7aacaa2d0f62910160405180910390a461153183600089898989611aaf565b50505050505050565b60006001600160e01b031982167fd9b67a2600000000000000000000000000000000000000000000000000000000148061159d57506001600160e01b031982167f0e89341c00000000000000000000000000000000000000000000000000000000145b806105b657507f01ffc9a7000000000000000000000000000000000000000000000000000000006001600160e01b03198316146105b6565b60608151600014156115f557505060408051602081019091526000815290565b6000604051806060016040528060408152602001612dcd60409139905060006003845160026116249190612c6d565b61162e9190612c85565b611639906004612ca7565b90506000611648826020612c6d565b67ffffffffffffffff81111561166057611660611f4c565b6040519080825280601f01601f19166020018201604052801561168a576020820181803683370190505b509050818152600183018586518101602084015b818310156116f6576003830192508251603f8160121c168501518253600182019150603f81600c1c168501518253600182019150603f8160061c168501518253600182019150603f811685015182535060010161169e565b600389510660018114611710576002811461173c57611764565b7f3d3d000000000000000000000000000000000000000000000000000000000000600119830152611764565b7f3d000000000000000000000000000000000000000000000000000000000000006000198301525b509398975050505050505050565b600054610100900460ff166117dd5760405162461bcd60e51b815260206004820152602b60248201527f496e697469616c697a61626c653a20636f6e7472616374206973206e6f74206960448201526a6e697469616c697a696e6760a81b6064820152608401610588565b610c8281611c79565b6001600160a01b0383166118625760405162461bcd60e51b815260206004820152602360248201527f455243313135353a206275726e2066726f6d20746865207a65726f206164647260448201527f65737300000000000000000000000000000000000000000000000000000000006064820152608401610588565b33600061186e84611a5c565b9050600061187b84611a5c565b6040805160208082018352600091829052888252609781528282206001600160a01b038b168352905220549091508481101561191e5760405162461bcd60e51b8152602060048201526024808201527f455243313135353a206275726e20616d6f756e7420657863656564732062616c60448201527f616e6365000000000000000000000000000000000000000000000000000000006064820152608401610588565b60008681526097602090815260408083206001600160a01b038b81168086529184528285208a8703905582518b81529384018a90529092908816917fc3d58168c5ae7397731d063d5bbf3d657854427343f4c083240f7aacaa2d0f62910160405180910390a4604080516020810190915260009052611531565b6033546001600160a01b03163314610cf55760405162461bcd60e51b815260206004820181905260248201527f4f776e61626c653a2063616c6c6572206973206e6f7420746865206f776e65726044820152606401610588565b603380546001600160a01b038381167fffffffffffffffffffffffff0000000000000000000000000000000000000000831681179093556040519116919082907f8be0079c531659141344cd1fd0a4f28419497f9722a3daafe3b4186f6b6457e090600090a35050565b60408051600180825281830190925260609160009190602080830190803683370190505090508281600081518110611a9657611a9661264f565b602090810291909101015292915050565b505050505050565b6001600160a01b0384163b15611aa75760405163f23a6e6160e01b81526001600160a01b0385169063f23a6e6190611af39089908990889088908890600401612cc6565b602060405180830381600087803b158015611b0d57600080fd5b505af1925050508015611b3d575060408051601f3d908101601f19168201909252611b3a91810190612d09565b60015b611bf357611b49612d26565b806308c379a01415611b835750611b5e612d42565b80611b695750611b85565b8060405162461bcd60e51b81526004016105889190611f39565b505b60405162461bcd60e51b815260206004820152603460248201527f455243313135353a207472616e7366657220746f206e6f6e204552433131353560448201527f526563656976657220696d706c656d656e7465720000000000000000000000006064820152608401610588565b6001600160e01b0319811663f23a6e6160e01b146115315760405162461bcd60e51b815260206004820152602860248201527f455243313135353a204552433131353552656365697665722072656a6563746560448201527f6420746f6b656e730000000000000000000000000000000000000000000000006064820152608401610588565b600054610100900460ff16611ce45760405162461bcd60e51b815260206004820152602b60248201527f496e697469616c697a61626c653a20636f6e7472616374206973206e6f74206960448201526a6e697469616c697a696e6760a81b6064820152608401610588565b610c82818051610ebd9060999060208401905b828054611d0390612665565b90600052602060002090601f016020900481019282611d255760008555611d6b565b82601f10611d3e57805160ff1916838001178555611d6b565b82800160010185558215611d6b579182015b82811115611d6b578251825591602001919060010190611d50565b50611d77929150611d7b565b5090565b5b80821115611d775760008155600101611d7c565b60008083601f840112611da257600080fd5b50813567ffffffffffffffff811115611dba57600080fd5b6020830191508360208260051b8501011115611dd557600080fd5b9250929050565b60008060008060408587031215611df257600080fd5b843567ffffffffffffffff80821115611e0a57600080fd5b611e1688838901611d90565b90965094506020870135915080821115611e2f57600080fd5b50611e3c87828801611d90565b95989497509550505050565b80356001600160a01b0381168114611e5f57600080fd5b919050565b60008060408385031215611e7757600080fd5b611e8083611e48565b946020939093013593505050565b6001600160e01b031981168114610c8257600080fd5b600060208284031215611eb657600080fd5b8135611ec181611e8e565b9392505050565b600060208284031215611eda57600080fd5b5035919050565b60005b83811015611efc578181015183820152602001611ee4565b83811115610c685750506000910152565b60008151808452611f25816020860160208601611ee1565b601f01601f19169290920160200192915050565b602081526000611ec16020830184611f0d565b634e487b7160e01b600052604160045260246000fd5b6060810181811067ffffffffffffffff82111715611f8257611f82611f4c565b60405250565b601f8201601f1916810167ffffffffffffffff81118282101715611fae57611fae611f4c565b6040525050565b600067ffffffffffffffff821115611fcf57611fcf611f4c565b5060051b60200190565b600082601f830112611fea57600080fd5b81356020611ff782611fb5565b6040516120048282611f88565b83815260059390931b850182019282810191508684111561202457600080fd5b8286015b8481101561203f5780358352918301918301612028565b509695505050505050565b600082601f83011261205b57600080fd5b813567ffffffffffffffff81111561207557612075611f4c565b60405161208c601f8301601f191660200182611f88565b8181528460208386010111156120a157600080fd5b816020850160208301376000918101602001919091529392505050565b600080600080600060a086880312156120d657600080fd5b6120df86611e48565b94506120ed60208701611e48565b9350604086013567ffffffffffffffff8082111561210a57600080fd5b61211689838a01611fd9565b9450606088013591508082111561212c57600080fd5b61213889838a01611fd9565b9350608088013591508082111561214e57600080fd5b5061215b8882890161204a565b9150509295509295909350565b60006020828403121561217a57600080fd5b611ec182611e48565b6000806040838503121561219657600080fd5b823567ffffffffffffffff808211156121ae57600080fd5b818501915085601f8301126121c257600080fd5b813560206121cf82611fb5565b6040516121dc8282611f88565b83815260059390931b85018201928281019150898411156121fc57600080fd5b948201945b838610156122215761221286611e48565b82529482019490820190612201565b9650508601359250508082111561223757600080fd5b5061224485828601611fd9565b9150509250929050565b6020808252825182820181905260009190848201906040850190845b818110156122865783518352928401929184019160010161226a565b50909695505050505050565b6000806000606084860312156122a757600080fd5b833567ffffffffffffffff808211156122bf57600080fd5b6122cb8783880161204a565b94506020915081860135818111156122e257600080fd5b6122ee8882890161204a565b94505060408601358181111561230357600080fd5b8601601f8101881361231457600080fd5b803561231f81611fb5565b60405161232c8282611f88565b82815260059290921b830185019185810191508a83111561234c57600080fd5b8584015b838110156124045780358681111561236757600080fd5b85016060818e03601f1901121561237d57600080fd5b60405161238981611f62565b888201358881111561239a57600080fd5b6123a88f8b8386010161204a565b8252506040820135888111156123bd57600080fd5b6123cb8f8b8386010161204a565b8a830152506060820135888111156123e257600080fd5b6123f08f8b8386010161204a565b604083015250845250918601918601612350565b508096505050505050509250925092565b60008083601f84011261242757600080fd5b50813567ffffffffffffffff81111561243f57600080fd5b602083019150836020828501011115611dd557600080fd5b60008060008060008060006080888a03121561247257600080fd5b87359650602088013567ffffffffffffffff8082111561249157600080fd5b61249d8b838c01612415565b909850965060408a01359150808211156124b657600080fd5b6124c28b838c01612415565b909650945060608a01359150808211156124db57600080fd5b506124e88a828b01612415565b989b979a50959850939692959293505050565b60006020828403121561250d57600080fd5b813567ffffffffffffffff81111561252457600080fd5b6125308482850161204a565b949350505050565b60608152600061254b6060830186611f0d565b828103602084015261255d8186611f0d565b905082810360408401526125718185611f0d565b9695505050505050565b6000806040838503121561258e57600080fd5b61259783611e48565b9150602083013580151581146125ac57600080fd5b809150509250929050565b600080604083850312156125ca57600080fd5b6125d383611e48565b91506125e160208401611e48565b90509250929050565b600080600080600060a0868803121561260257600080fd5b61260b86611e48565b945061261960208701611e48565b93506040860135925060608601359150608086013567ffffffffffffffff81111561264357600080fd5b61215b8882890161204a565b634e487b7160e01b600052603260045260246000fd5b600181811c9082168061267957607f821691505b6020821081141561091e57634e487b7160e01b600052602260045260246000fd5b634e487b7160e01b600052601160045260246000fd5b60006000198214156126c4576126c461269a565b5060010190565b600081516126dd818560208601611ee1565b9290920192915050565b600081546126f481612665565b6001828116801561270c576001811461271d5761274c565b60ff1984168752828701945061274c565b8560005260208060002060005b858110156127435781548a82015290840190820161272a565b50505082870194505b5050505092915050565b7f7b226e616d65223a22000000000000000000000000000000000000000000000081526000865161278e816009850160208b01611ee1565b7f222c226465736372697074696f6e223a2200000000000000000000000000000060099184019182015286516127cb81601a840160208b01611ee1565b8082019150507f5c6e5c6e0000000000000000000000000000000000000000000000000000000080601a830152612805601e8301886126e7565b9150808252507f5b4120426164676572206d616e6167656420746f6b656e2e5d2868747470733a60048201527f2f2f6261646765722e75746332342e696f2f290000000000000000000000000060248201527f222c22696d616765223a2200000000000000000000000000000000000000000060378201528451612890816042840160208901611ee1565b6128f76128ce6128c86042848601017f222c2261747472696275746573223a5b00000000000000000000000000000000815260100190565b876126cb565b7f5d7d000000000000000000000000000000000000000000000000000000000000815260020190565b9998505050505050505050565b7f646174613a6170706c69636174696f6e2f6a736f6e3b6261736536342c00000081526000825161293c81601d850160208701611ee1565b91909101601d0192915050565b7f697066733a2f2f0000000000000000000000000000000000000000000000000081526000611ec160078301846126e7565b7f7b2274726169745f74797065223a224261646765205469746c65222c2276616c81527f7565223a22000000000000000000000000000000000000000000000000000000602082015260006129d360258301846126e7565b7f227d00000000000000000000000000000000000000000000000000000000000081526002019392505050565b60008235605e19833603018112612a1657600080fd5b9190910192915050565b6000808335601e19843603018112612a3757600080fd5b83018035915067ffffffffffffffff821115612a5257600080fd5b602001915036819003821315611dd557600080fd5b601f82111561131c57600081815260208120601f850160051c81016020861015612a8e5750805b601f850160051c820191505b81811015611aa757828155600101612a9a565b67ffffffffffffffff831115612ac557612ac5611f4c565b612ad983612ad38354612665565b83612a67565b6000601f841160018114612b0d5760008515612af55750838201355b600019600387901b1c1916600186901b178355610507565b600083815260209020601f19861690835b82811015612b3e5786850135825560209485019460019092019101612b1e565b5086821015612b5b5760001960f88860031b161c19848701351681555b505060018560011b0183555050505050565b612b778283612a20565b67ffffffffffffffff811115612b8f57612b8f611f4c565b612ba381612b9d8554612665565b85612a67565b6000601f821160018114612bd75760008315612bbf5750838201355b600019600385901b1c1916600184901b178555612c31565b600085815260209020601f19841690835b82811015612c085786850135825560209485019460019092019101612be8565b5084821015612c255760001960f88660031b161c19848701351681555b505060018360011b0185555b50505050612c426020830183612a20565b612c50818360018601612aad565b5050612c5f6040830183612a20565b610c68818360028601612aad565b60008219821115612c8057612c8061269a565b500190565b600082612ca257634e487b7160e01b600052601260045260246000fd5b500490565b6000816000190483118215151615612cc157612cc161269a565b500290565b60006001600160a01b03808816835280871660208401525084604083015283606083015260a06080830152612cfe60a0830184611f0d565b979650505050505050565b600060208284031215612d1b57600080fd5b8151611ec181611e8e565b600060033d1115612d3f5760046000803e5060005160e01c5b90565b600060443d1015612d505790565b6040516003193d81016004833e81513d67ffffffffffffffff8160248401118184111715612d8057505050505090565b8285019150815181811115612d985750505050505090565b843d8701016020828501011115612db25750505050505090565b612dc160208286010187611f88565b50909594505050505056fe4142434445464748494a4b4c4d4e4f505152535455565758595a6162636465666768696a6b6c6d6e6f707172737475767778797a303132333435363738392b2fa2646970667358221220ad63b34d2343d034dd69ff733ac1105407f6ac80b26db8fe5c633813b230ec3064736f6c63430008090033",
  "linkReferences": {},
  "deployedLinkReferences": {}
}