{
  "_format": "hh-sol-artifact-1",
  "contractName": "Badger",
  "sourceName": "contracts/Badger/Badger.sol",
  "abi": [
    {
      "inputs": [
        {
          "internalType": "address",
          "name": "_implementation",
          "type": "address"
        }
      ],
      "stateMutability": "nonpayable",
      "type": "constructor"
    },
    {
      "anonymous": false,
      "inputs": [
        {
          "indexed": true,
          "internalType": "address",
          "name": "organization",
          "type": "address"
        },
        {
          "indexed": true,
          "internalType": "address",
          "name": "owner",
          "type": "address"
        },
        {
          "indexed": true,
          "internalType": "address",
          "name": "implementation",
          "type": "address"
        }
      ],
      "name": "OrganizationCreated",
      "type": "event"
    },
    {
      "anonymous": false,
      "inputs": [
        {
          "indexed": true,
          "internalType": "address",
          "name": "previousOwner",
          "type": "address"
        },
        {
          "indexed": true,
          "internalType": "address",
          "name": "newOwner",
          "type": "address"
        }
      ],
      "name": "OwnershipTransferred",
      "type": "event"
    },
    {
      "anonymous": false,
      "inputs": [
        {
          "indexed": true,
          "internalType": "address",
          "name": "implementation",
          "type": "address"
        },
        {
          "indexed": true,
          "internalType": "address",
          "name": "owner",
          "type": "address"
        },
        {
          "indexed": true,
          "internalType": "bytes32",
          "name": "licenseKey",
          "type": "bytes32"
        },
        {
          "indexed": false,
          "internalType": "uint256",
          "name": "amount",
          "type": "uint256"
        },
        {
          "indexed": false,
          "internalType": "bool",
          "name": "locked",
          "type": "bool"
        }
      ],
      "name": "VersionUpdated",
      "type": "event"
    },
    {
      "inputs": [
        {
          "internalType": "address",
          "name": "_implementation",
          "type": "address"
        },
        {
          "internalType": "address",
          "name": "_deployer",
          "type": "address"
        },
        {
          "internalType": "string",
          "name": "_uri",
          "type": "string"
        },
        {
          "internalType": "string",
          "name": "_organizationURI",
          "type": "string"
        },
        {
          "internalType": "string",
          "name": "_name",
          "type": "string"
        },
        {
          "internalType": "string",
          "name": "_symbol",
          "type": "string"
        }
      ],
      "name": "createOrganization",
      "outputs": [
        {
          "internalType": "address",
          "name": "",
          "type": "address"
        }
      ],
      "stateMutability": "nonpayable",
      "type": "function"
    },
    {
      "inputs": [
        {
          "internalType": "address",
          "name": "_to",
          "type": "address"
        },
        {
          "internalType": "bytes",
          "name": "_data",
          "type": "bytes"
        },
        {
          "internalType": "uint256",
          "name": "_value",
          "type": "uint256"
        }
      ],
      "name": "execTransaction",
      "outputs": [],
      "stateMutability": "payable",
      "type": "function"
    },
    {
      "inputs": [
        {
          "internalType": "bytes32",
          "name": "_versionKey",
          "type": "bytes32"
        },
        {
          "internalType": "address",
          "name": "_sender",
          "type": "address"
        }
      ],
      "name": "getLicenseKey",
      "outputs": [
        {
          "internalType": "bytes32",
          "name": "",
          "type": "bytes32"
        }
      ],
      "stateMutability": "pure",
      "type": "function"
    },
    {
      "inputs": [
        {
          "internalType": "address",
          "name": "_implementation",
          "type": "address"
        }
      ],
      "name": "getVersionKey",
      "outputs": [
        {
          "internalType": "bytes32",
          "name": "",
          "type": "bytes32"
        }
      ],
      "stateMutability": "view",
      "type": "function"
    },
    {
      "inputs": [
        {
          "internalType": "address",
          "name": "",
          "type": "address"
        },
        {
          "internalType": "address",
          "name": "",
          "type": "address"
        },
        {
          "internalType": "uint256[]",
          "name": "",
          "type": "uint256[]"
        },
        {
          "internalType": "uint256[]",
          "name": "",
          "type": "uint256[]"
        },
        {
          "internalType": "bytes",
          "name": "",
          "type": "bytes"
        }
      ],
      "name": "onERC1155BatchReceived",
      "outputs": [
        {
          "internalType": "bytes4",
          "name": "",
          "type": "bytes4"
        }
      ],
      "stateMutability": "nonpayable",
      "type": "function"
    },
    {
      "inputs": [
        {
          "internalType": "address",
          "name": "",
          "type": "address"
        },
        {
          "internalType": "address",
          "name": "_from",
          "type": "address"
        },
        {
          "internalType": "uint256",
          "name": "_id",
          "type": "uint256"
        },
        {
          "internalType": "uint256",
          "name": "_amount",
          "type": "uint256"
        },
        {
          "internalType": "bytes",
          "name": "_data",
          "type": "bytes"
        }
      ],
      "name": "onERC1155Received",
      "outputs": [
        {
          "internalType": "bytes4",
          "name": "",
          "type": "bytes4"
        }
      ],
      "stateMutability": "nonpayable",
      "type": "function"
    },
    {
      "inputs": [],
      "name": "owner",
      "outputs": [
        {
          "internalType": "address",
          "name": "",
          "type": "address"
        }
      ],
      "stateMutability": "view",
      "type": "function"
    },
    {
      "inputs": [],
      "name": "renounceOwnership",
      "outputs": [],
      "stateMutability": "nonpayable",
      "type": "function"
    },
    {
      "inputs": [
        {
          "internalType": "address",
          "name": "_implementation",
          "type": "address"
        },
        {
          "internalType": "address",
          "name": "_owner",
          "type": "address"
        },
        {
          "internalType": "address",
          "name": "_tokenAddress",
          "type": "address"
        },
        {
          "internalType": "uint256",
          "name": "_tokenId",
          "type": "uint256"
        },
        {
          "internalType": "uint256",
          "name": "_amount",
          "type": "uint256"
        },
        {
          "internalType": "bool",
          "name": "_locked",
          "type": "bool"
        }
      ],
      "name": "setVersion",
      "outputs": [],
      "stateMutability": "nonpayable",
      "type": "function"
    },
    {
      "inputs": [
        {
          "internalType": "bytes4",
          "name": "_interfaceId",
          "type": "bytes4"
        }
      ],
      "name": "supportsInterface",
      "outputs": [
        {
          "internalType": "bool",
          "name": "",
          "type": "bool"
        }
      ],
      "stateMutability": "view",
      "type": "function"
    },
    {
      "inputs": [
        {
          "internalType": "address",
          "name": "newOwner",
          "type": "address"
        }
      ],
      "name": "transferOwnership",
      "outputs": [],
      "stateMutability": "nonpayable",
      "type": "function"
    },
    {
      "inputs": [
        {
          "internalType": "bytes32",
          "name": "",
          "type": "bytes32"
        }
      ],
      "name": "versionKeyToFunded",
      "outputs": [
        {
          "internalType": "uint256",
          "name": "",
          "type": "uint256"
        }
      ],
      "stateMutability": "view",
      "type": "function"
    },
    {
      "inputs": [
        {
          "internalType": "address",
          "name": "",
          "type": "address"
        }
      ],
      "name": "versions",
      "outputs": [
        {
          "internalType": "address",
          "name": "owner",
          "type": "address"
        },
        {
          "internalType": "bytes32",
          "name": "licenseKey",
          "type": "bytes32"
        },
        {
          "internalType": "uint256",
          "name": "amount",
          "type": "uint256"
        },
        {
          "internalType": "bool",
          "name": "locked",
          "type": "bool"
        }
      ],
      "stateMutability": "view",
      "type": "function"
    }
  ],
  "bytecode": "0x608060405234801561001057600080fd5b5060405161157138038061157183398101604081905261002f9161018e565b806100393361007d565b61007681336040516000602082018190526034820152605401604051602081830303815290604052805190602001206000806100cd60201b60201c565b50506101be565b600080546001600160a01b038381166001600160a01b0319831681178455604051919092169283917f8be0079c531659141344cd1fd0a4f28419497f9722a3daafe3b4186f6b6457e09190a35050565b604080516080810182526001600160a01b038681168083526020808401888152848601888152871515606087018181528d871660008181526001808852908b902099518a546001600160a01b03191699169890981789559351968801969096559051600287015593516003909501805460ff19169515159590951790945584518781529081019290925286939092917fb14f2d8a402e52b054be554b7dd175a2ee8a7523bb9fb11eea3c5aaf8d217bd3910160405180910390a45050505050565b6000602082840312156101a057600080fd5b81516001600160a01b03811681146101b757600080fd5b9392505050565b6113a4806101cd6000396000f3fe6080604052600436106100d25760003560e01c80638da5cb5b1161007f578063f0526bf811610059578063f0526bf8146102b8578063f0d2120b146102d8578063f23a6e61146102f8578063f2fde38b1461031857600080fd5b80638da5cb5b1461024e578063bc197c811461026c578063bf8ebca7146102a557600080fd5b80635f52d852116100b05780635f52d852146101d2578063715018a6146101ff5780637b3662131461021657600080fd5b806301ffc9a7146100d7578063488725a01461010c57806352d574e51461018a575b600080fd5b3480156100e357600080fd5b506100f76100f2366004610d72565b610338565b60405190151581526020015b60405180910390f35b34801561011857600080fd5b5061015e610127366004610dc3565b600160208190526000918252604090912080549181015460028201546003909201546001600160a01b039093169290919060ff1684565b604080516001600160a01b03909516855260208501939093529183015215156060820152608001610103565b34801561019657600080fd5b506101c46101a5366004610dc3565b6001600160a01b03166000908152600160208190526040909120015490565b604051908152602001610103565b3480156101de57600080fd5b506101c46101ed366004610de0565b60026020526000908152604090205481565b34801561020b57600080fd5b5061021461037c565b005b34801561022257600080fd5b50610236610231366004610eb0565b610390565b6040516001600160a01b039091168152602001610103565b34801561025a57600080fd5b506000546001600160a01b0316610236565b34801561027857600080fd5b5061028c610287366004610ffd565b610413565b6040516001600160e01b03199091168152602001610103565b6102146102b33660046110ab565b61043e565b3480156102c457600080fd5b506102146102d3366004611136565b6104dd565b3480156102e457600080fd5b506101c46102f33660046111ab565b61076a565b34801561030457600080fd5b5061028c6103133660046111db565b6107b8565b34801561032457600080fd5b50610214610333366004610dc3565b610924565b60006001600160e01b031982167f7b3662130000000000000000000000000000000000000000000000000000000014806103765750610376826109b4565b92915050565b610384610a1c565b61038e6000610a76565b565b6001600160a01b0386811660009081526001602081815260408084208151608081018352815490961686529283015491850182905260028301549085015260039091015460ff161515606084015290919082906103ed903361076a565b905060006104058a8385604001518c8c8c8c8c610ad3565b9a9950505050505050505050565b7fbc197c81000000000000000000000000000000000000000000000000000000005b95945050505050565b610446610a1c565b600080856001600160a01b0316838686604051610464929190611244565b60006040518083038185875af1925050503d80600081146104a1576040519150601f19603f3d011682016040523d82523d6000602084013e6104a6565b606091505b50915091508181906104d45760405162461bcd60e51b81526004016104cb919061129a565b60405180910390fd5b50505050505050565b6001600160a01b0380871660009081526001602081815260409283902083516080810185528154909516855291820154908401526002810154918301919091526003015460ff16158015606083015261059e5760405162461bcd60e51b815260206004820152603c60248201527f42616467657256657273696f6e733a3a5f73657456657273696f6e3a2043616e60448201527f6e6f74207570646174652061206c6f636b65642076657273696f6e2e0000000060648201526084016104cb565b80516001600160a01b031615806105be575080516001600160a01b031633145b6106565760405162461bcd60e51b815260206004820152604d60248201527f42616467657256657273696f6e733a3a5f73657456657273696f6e3a20596f7560448201527f20646f206e6f742068617665207065726d697373696f6e20746f20656469742060648201527f746869732076657273696f6e2e00000000000000000000000000000000000000608482015260a4016104cb565b6000546001600160a01b0316331461071f576001600160a01b03851615801561067d575083155b8015610687575082155b61071f5760405162461bcd60e51b815260206004820152604f60248201527f42616467657256657273696f6e733a3a5f73657456657273696f6e3a20596f7560448201527f20646f206e6f742068617665207065726d697373696f6e20746f20736574206160648201527f207061796d656e7420746f6b656e2e0000000000000000000000000000000000608482015260a4016104cb565b6040516bffffffffffffffffffffffff19606087901b166020820152603481018590526104d49088908890605401604051602081830303815290604052805190602001208686610be9565b6000828260405160200161079a92919091825260601b6bffffffffffffffffffffffff1916602082015260340190565b60405160208183030381529060405280519060200120905092915050565b600081516000036107d1575063f23a6e6160e01b610435565b6000828060200190518101906107e791906112ad565b6001600160a01b03811660009081526001602081905260409091200154909150338660405160200161083792919060609290921b6bffffffffffffffffffffffff19168252601482015260340190565b60405160208183030381529060405280519060200120146108c05760405162461bcd60e51b815260206004820152602f60248201527f4261646765723a3a6f6e4552433131353552656365697665643a20496e76616c60448201527f6964206c6963656e7365206b65792e000000000000000000000000000000000060648201526084016104cb565b6001600160a01b0381166000908152600160208190526040822001546108e6908861076a565b90508460026000838152602001908152602001600020600082825461090b91906112e0565b9091555063f23a6e6160e01b9998505050505050505050565b61092c610a1c565b6001600160a01b0381166109a85760405162461bcd60e51b815260206004820152602660248201527f4f776e61626c653a206e6577206f776e657220697320746865207a65726f206160448201527f646472657373000000000000000000000000000000000000000000000000000060648201526084016104cb565b6109b181610a76565b50565b60006001600160e01b031982167f52550d1600000000000000000000000000000000000000000000000000000000148061037657506001600160e01b031982167f4e2312e0000000000000000000000000000000000000000000000000000000001492915050565b6000546001600160a01b0316331461038e5760405162461bcd60e51b815260206004820181905260248201527f4f776e61626c653a2063616c6c6572206973206e6f7420746865206f776e657260448201526064016104cb565b600080546001600160a01b0383811673ffffffffffffffffffffffffffffffffffffffff19831681178455604051919092169283917f8be0079c531659141344cd1fd0a4f28419497f9722a3daafe3b4186f6b6457e09190a35050565b600087815260026020526040812080548891908390610af39084906112f3565b9091555060009050610b0d6001600160a01b038b16610cb7565b6040517fb6dbcae500000000000000000000000000000000000000000000000000000000815290915081906001600160a01b0382169063b6dbcae590610b5f908b908b908b908b908b90600401611306565b600060405180830381600087803b158015610b7957600080fd5b505af1158015610b8d573d6000803e3d6000fd5b505050508a6001600160a01b0316886001600160a01b0316836001600160a01b03167f39e4fba473bee8eaa003d03e0707c05d0feae5f9b0e3d1f6b8566694c6ffc78660405160405180910390a4509998505050505050505050565b604080516080810182526001600160a01b038681168083526020808401888152848601888152871515606087018181528d871660008181526001808852908b902099518a5473ffffffffffffffffffffffffffffffffffffffff191699169890981789559351968801969096559051600287015593516003909501805460ff19169515159590951790945584518781529081019290925286939092917fb14f2d8a402e52b054be554b7dd175a2ee8a7523bb9fb11eea3c5aaf8d217bd3910160405180910390a45050505050565b60006040517f3d602d80600a3d3981f3363d3d373d3d3d363d7300000000000000000000000081528260601b60148201527f5af43d82803e903d91602b57fd5bf3000000000000000000000000000000000060288201526037816000f09150506001600160a01b038116610d6d5760405162461bcd60e51b815260206004820152601660248201527f455243313136373a20637265617465206661696c65640000000000000000000060448201526064016104cb565b919050565b600060208284031215610d8457600080fd5b81356001600160e01b031981168114610d9c57600080fd5b9392505050565b6001600160a01b03811681146109b157600080fd5b8035610d6d81610da3565b600060208284031215610dd557600080fd5b8135610d9c81610da3565b600060208284031215610df257600080fd5b5035919050565b634e487b7160e01b600052604160045260246000fd5b604051601f8201601f1916810167ffffffffffffffff81118282101715610e3857610e38610df9565b604052919050565b600082601f830112610e5157600080fd5b813567ffffffffffffffff811115610e6b57610e6b610df9565b610e7e601f8201601f1916602001610e0f565b818152846020838601011115610e9357600080fd5b816020850160208301376000918101602001919091529392505050565b60008060008060008060c08789031215610ec957600080fd5b610ed287610db8565b9550610ee060208801610db8565b9450604087013567ffffffffffffffff80821115610efd57600080fd5b610f098a838b01610e40565b95506060890135915080821115610f1f57600080fd5b610f2b8a838b01610e40565b94506080890135915080821115610f4157600080fd5b610f4d8a838b01610e40565b935060a0890135915080821115610f6357600080fd5b50610f7089828a01610e40565b9150509295509295509295565b600082601f830112610f8e57600080fd5b8135602067ffffffffffffffff821115610faa57610faa610df9565b8160051b610fb9828201610e0f565b9283528481018201928281019087851115610fd357600080fd5b83870192505b84831015610ff257823582529183019190830190610fd9565b979650505050505050565b600080600080600060a0868803121561101557600080fd5b853561102081610da3565b9450602086013561103081610da3565b9350604086013567ffffffffffffffff8082111561104d57600080fd5b61105989838a01610f7d565b9450606088013591508082111561106f57600080fd5b61107b89838a01610f7d565b9350608088013591508082111561109157600080fd5b5061109e88828901610e40565b9150509295509295909350565b600080600080606085870312156110c157600080fd5b84356110cc81610da3565b9350602085013567ffffffffffffffff808211156110e957600080fd5b818701915087601f8301126110fd57600080fd5b81358181111561110c57600080fd5b88602082850101111561111e57600080fd5b95986020929092019750949560400135945092505050565b60008060008060008060c0878903121561114f57600080fd5b863561115a81610da3565b9550602087013561116a81610da3565b9450604087013561117a81610da3565b9350606087013592506080870135915060a0870135801515811461119d57600080fd5b809150509295509295509295565b600080604083850312156111be57600080fd5b8235915060208301356111d081610da3565b809150509250929050565b600080600080600060a086880312156111f357600080fd5b85356111fe81610da3565b9450602086013561120e81610da3565b93506040860135925060608601359150608086013567ffffffffffffffff81111561123857600080fd5b61109e88828901610e40565b8183823760009101908152919050565b6000815180845260005b8181101561127a5760208185018101518683018201520161125e565b506000602082860101526020601f19601f83011685010191505092915050565b602081526000610d9c6020830184611254565b6000602082840312156112bf57600080fd5b8151610d9c81610da3565b634e487b7160e01b600052601160045260246000fd5b80820180821115610376576103766112ca565b81810381811115610376576103766112ca565b6001600160a01b038616815260a06020820152600061132860a0830187611254565b828103604084015261133a8187611254565b9050828103606084015261134e8186611254565b905082810360808401526113628185611254565b9897505050505050505056fea264697066735822122039aab012fd85602cecb27f3bf47718bdfbd7aca4782e247f153f4a97b3b0c43464736f6c63430008100033",
  "linkReferences": {},
  "deployedLinkReferences": {}
}