{
  "_format": "hh-sol-artifact-1",
  "contractName": "Badger",
  "sourceName": "contracts/Badger/Badger.sol",
  "abi": [
    {
      "inputs": [
        {
          "internalType": "address",
          "name": "_orgMaster",
          "type": "address"
        }
      ],
      "stateMutability": "nonpayable",
      "type": "constructor"
    },
    {
      "anonymous": false,
      "inputs": [
        {
          "indexed": true,
          "internalType": "address",
          "name": "oldOrgMaster",
          "type": "address"
        },
        {
          "indexed": true,
          "internalType": "address",
          "name": "newOrgMaster",
          "type": "address"
        }
      ],
      "name": "MasterOrgUpdated",
      "type": "event"
    },
    {
      "anonymous": false,
      "inputs": [
        {
          "indexed": true,
          "internalType": "address",
          "name": "orgMaster",
          "type": "address"
        },
        {
          "indexed": true,
          "internalType": "address",
          "name": "orgAddress",
          "type": "address"
        }
      ],
      "name": "OrgCreated",
      "type": "event"
    },
    {
      "anonymous": false,
      "inputs": [
        {
          "indexed": true,
          "internalType": "address",
          "name": "previousOwner",
          "type": "address"
        },
        {
          "indexed": true,
          "internalType": "address",
          "name": "newOwner",
          "type": "address"
        }
      ],
      "name": "OwnershipTransferred",
      "type": "event"
    },
    {
      "inputs": [],
      "name": "deployOrg",
      "outputs": [],
      "stateMutability": "nonpayable",
      "type": "function"
    },
    {
      "inputs": [
        {
          "internalType": "uint256",
          "name": "_diff",
          "type": "uint256"
        }
      ],
      "name": "forceOrgNonce",
      "outputs": [],
      "stateMutability": "nonpayable",
      "type": "function"
    },
    {
      "inputs": [
        {
          "internalType": "bytes32",
          "name": "salt",
          "type": "bytes32"
        }
      ],
      "name": "getOrgAddress",
      "outputs": [
        {
          "internalType": "address",
          "name": "",
          "type": "address"
        }
      ],
      "stateMutability": "view",
      "type": "function"
    },
    {
      "inputs": [],
      "name": "hatterOrgs",
      "outputs": [
        {
          "internalType": "uint256",
          "name": "",
          "type": "uint256"
        }
      ],
      "stateMutability": "view",
      "type": "function"
    },
    {
      "inputs": [],
      "name": "orgMaster",
      "outputs": [
        {
          "internalType": "address",
          "name": "",
          "type": "address"
        }
      ],
      "stateMutability": "view",
      "type": "function"
    },
    {
      "inputs": [],
      "name": "owner",
      "outputs": [
        {
          "internalType": "address",
          "name": "",
          "type": "address"
        }
      ],
      "stateMutability": "view",
      "type": "function"
    },
    {
      "inputs": [],
      "name": "renounceOwnership",
      "outputs": [],
      "stateMutability": "nonpayable",
      "type": "function"
    },
    {
      "inputs": [
        {
          "internalType": "address",
          "name": "newOwner",
          "type": "address"
        }
      ],
      "name": "transferOwnership",
      "outputs": [],
      "stateMutability": "nonpayable",
      "type": "function"
    },
    {
      "inputs": [],
      "name": "version",
      "outputs": [
        {
          "internalType": "uint256",
          "name": "",
          "type": "uint256"
        }
      ],
      "stateMutability": "view",
      "type": "function"
    }
  ],
  "bytecode": "0x6080604052600160035534801561001557600080fd5b5060405161076f38038061076f833981016040819052610034916101ca565b61003d3361004c565b6100468161009c565b506101fa565b600080546001600160a01b038381166001600160a01b0319831681178455604051919092169283917f8be0079c531659141344cd1fd0a4f28419497f9722a3daafe3b4186f6b6457e09190a35050565b6100a461016e565b6002546001600160a01b03828116911614156101075760405162461bcd60e51b815260206004820152601360248201527f4261646765723a2053616d65206d61737465720000000000000000000000000060448201526064015b60405180910390fd5b6002546040516001600160a01b038084169216907f57b7f7eedf0bb9d3d9d66a6c8e31f175ed1cf3859e73fc0fff1d87025e23bbdf90600090a3600280546001600160a01b0319166001600160a01b03929092169190911790556001805481018155600355565b6000546001600160a01b031633146101c85760405162461bcd60e51b815260206004820181905260248201527f4f776e61626c653a2063616c6c6572206973206e6f7420746865206f776e657260448201526064016100fe565b565b6000602082840312156101dc57600080fd5b81516001600160a01b03811681146101f357600080fd5b9392505050565b610566806102096000396000f3fe608060405234801561001057600080fd5b50600436106100a35760003560e01c8063607de5fa116100765780638da5cb5b1161005b5780638da5cb5b1461011d57806390039b891461012e578063f2fde38b1461014157600080fd5b8063607de5fa14610102578063715018a61461011557600080fd5b8063169ff3b2146100a857806317ab6a3e146100c45780634f7b5766146100ce57806354fd4d50146100f9575b600080fd5b6100b160035481565b6040519081526020015b60405180910390f35b6100cc610154565b005b6002546100e1906001600160a01b031681565b6040516001600160a01b0390911681526020016100bb565b6100b160015481565b6100e16101103660046104ee565b6101bf565b6100cc61023b565b6000546001600160a01b03166100e1565b6100cc61013c3660046104ee565b61024f565b6100cc61014f366004610507565b610262565b60035460025461016d906001600160a01b0316826102f2565b506000610179826101bf565b6003805460010190556040519091506001600160a01b0382169033907f8322aca383e0b6ac5377a0e16ba66f8905a154d8bc387636b2e8dc7aabc1970190600090a35050565b6002546000906001600160a01b031661021f5760405162461bcd60e51b815260206004820152601660248201527f4261646765723a20496e76616c6964206d61737465720000000000000000000060448201526064015b60405180910390fd5b600254610235906001600160a01b0316836103a9565b92915050565b61024361042c565b61024d6000610486565b565b61025761042c565b600380549091019055565b61026a61042c565b6001600160a01b0381166102e65760405162461bcd60e51b815260206004820152602660248201527f4f776e61626c653a206e6577206f776e657220697320746865207a65726f206160448201527f64647265737300000000000000000000000000000000000000000000000000006064820152608401610216565b6102ef81610486565b50565b60006040517f3d602d80600a3d3981f3363d3d373d3d3d363d7300000000000000000000000081528360601b60148201527f5af43d82803e903d91602b57fd5bf300000000000000000000000000000000006028820152826037826000f59150506001600160a01b0381166102355760405162461bcd60e51b815260206004820152601760248201527f455243313136373a2063726561746532206661696c65640000000000000000006044820152606401610216565b60006104258383306040517f3d602d80600a3d3981f3363d3d373d3d3d363d730000000000000000000000008152606093841b60148201527f5af43d82803e903d91602b57fd5bf3ff000000000000000000000000000000006028820152921b6038830152604c8201526037808220606c830152605591012090565b9392505050565b6000546001600160a01b0316331461024d5760405162461bcd60e51b815260206004820181905260248201527f4f776e61626c653a2063616c6c6572206973206e6f7420746865206f776e65726044820152606401610216565b600080546001600160a01b038381167fffffffffffffffffffffffff0000000000000000000000000000000000000000831681178455604051919092169283917f8be0079c531659141344cd1fd0a4f28419497f9722a3daafe3b4186f6b6457e09190a35050565b60006020828403121561050057600080fd5b5035919050565b60006020828403121561051957600080fd5b81356001600160a01b038116811461042557600080fdfea26469706673582212201a9ebc7488611ff4cbf6ae68baa5d2c4c8d10a5c6bc3abd9494a059ef062232764736f6c63430008090033",
  "linkReferences": {},
  "deployedLinkReferences": {}
}