{
  "_format": "hh-sol-artifact-1",
  "contractName": "Badger",
  "sourceName": "contracts/Badger/Badger.sol",
  "abi": [
    {
      "inputs": [
        {
          "internalType": "address",
          "name": "_masterContract",
          "type": "address"
        }
      ],
      "stateMutability": "nonpayable",
      "type": "constructor"
    },
    {
      "anonymous": false,
      "inputs": [
        {
          "indexed": true,
          "internalType": "address",
          "name": "oldMasterContract",
          "type": "address"
        },
        {
          "indexed": true,
          "internalType": "address",
          "name": "newMasterContract",
          "type": "address"
        }
      ],
      "name": "MasterContractUpdated",
      "type": "event"
    },
    {
      "anonymous": false,
      "inputs": [
        {
          "indexed": true,
          "internalType": "address",
          "name": "master",
          "type": "address"
        },
        {
          "indexed": true,
          "internalType": "address",
          "name": "setAddress",
          "type": "address"
        }
      ],
      "name": "NewSetCreated",
      "type": "event"
    },
    {
      "anonymous": false,
      "inputs": [
        {
          "indexed": true,
          "internalType": "address",
          "name": "previousOwner",
          "type": "address"
        },
        {
          "indexed": true,
          "internalType": "address",
          "name": "newOwner",
          "type": "address"
        }
      ],
      "name": "OwnershipTransferred",
      "type": "event"
    },
    {
      "inputs": [],
      "name": "badgerSets",
      "outputs": [
        {
          "internalType": "uint256",
          "name": "",
          "type": "uint256"
        }
      ],
      "stateMutability": "view",
      "type": "function"
    },
    {
      "inputs": [],
      "name": "deploySet",
      "outputs": [],
      "stateMutability": "nonpayable",
      "type": "function"
    },
    {
      "inputs": [
        {
          "internalType": "uint256",
          "name": "_diff",
          "type": "uint256"
        }
      ],
      "name": "forceBadgerNonce",
      "outputs": [],
      "stateMutability": "nonpayable",
      "type": "function"
    },
    {
      "inputs": [
        {
          "internalType": "bytes32",
          "name": "salt",
          "type": "bytes32"
        }
      ],
      "name": "getSetAddress",
      "outputs": [
        {
          "internalType": "address",
          "name": "",
          "type": "address"
        }
      ],
      "stateMutability": "view",
      "type": "function"
    },
    {
      "inputs": [],
      "name": "masterContract",
      "outputs": [
        {
          "internalType": "address",
          "name": "",
          "type": "address"
        }
      ],
      "stateMutability": "view",
      "type": "function"
    },
    {
      "inputs": [],
      "name": "owner",
      "outputs": [
        {
          "internalType": "address",
          "name": "",
          "type": "address"
        }
      ],
      "stateMutability": "view",
      "type": "function"
    },
    {
      "inputs": [],
      "name": "renounceOwnership",
      "outputs": [],
      "stateMutability": "nonpayable",
      "type": "function"
    },
    {
      "inputs": [
        {
          "internalType": "address",
          "name": "newOwner",
          "type": "address"
        }
      ],
      "name": "transferOwnership",
      "outputs": [],
      "stateMutability": "nonpayable",
      "type": "function"
    },
    {
      "inputs": [],
      "name": "version",
      "outputs": [
        {
          "internalType": "uint256",
          "name": "",
          "type": "uint256"
        }
      ],
      "stateMutability": "view",
      "type": "function"
    }
  ],
  "bytecode": "0x6080604052600160035534801561001557600080fd5b5060405161076b38038061076b833981016040819052610034916101ca565b61003d3361004c565b6100468161009c565b506101fa565b600080546001600160a01b038381166001600160a01b0319831681178455604051919092169283917f8be0079c531659141344cd1fd0a4f28419497f9722a3daafe3b4186f6b6457e09190a35050565b6100a461016e565b6002546001600160a01b03828116911614156101075760405162461bcd60e51b815260206004820152601360248201527f4261646765723a2053616d65206d61737465720000000000000000000000000060448201526064015b60405180910390fd5b6002546040516001600160a01b038084169216907f95e15b5ed643fc1669430b96052aeee02a35ca16761eb68cef84fa4909e72d2e90600090a3600280546001600160a01b0319166001600160a01b03929092169190911790556001805481018155600355565b6000546001600160a01b031633146101c85760405162461bcd60e51b815260206004820181905260248201527f4f776e61626c653a2063616c6c6572206973206e6f7420746865206f776e657260448201526064016100fe565b565b6000602082840312156101dc57600080fd5b81516001600160a01b03811681146101f357600080fd5b9392505050565b610562806102096000396000f3fe608060405234801561001057600080fd5b50600436106100a35760003560e01c8063b9933cba11610076578063cd446e221161005b578063cd446e2214610117578063df235fda1461012a578063f2fde38b1461013d57600080fd5b8063b9933cba146100fb578063cab2ad731461010e57600080fd5b8063402ffd02146100a857806354fd4d50146100b2578063715018a6146100ce5780638da5cb5b146100d6575b600080fd5b6100b0610150565b005b6100bb60015481565b6040519081526020015b60405180910390f35b6100b06101bb565b6000546001600160a01b03165b6040516001600160a01b0390911681526020016100c5565b6100e36101093660046104ea565b6101cf565b6100bb60035481565b6002546100e3906001600160a01b031681565b6100b06101383660046104ea565b61024b565b6100b061014b366004610503565b61025e565b600354600254610169906001600160a01b0316826102ee565b506000610175826101cf565b6003805460010190556040519091506001600160a01b0382169033907fd0325c59768419c7b333329462e0eb91e9a76bbcf46be033780e46bc40223d6890600090a35050565b6101c36103a5565b6101cd60006103ff565b565b6002546000906001600160a01b031661022f5760405162461bcd60e51b815260206004820152601660248201527f4261646765723a20496e76616c6964206d61737465720000000000000000000060448201526064015b60405180910390fd5b600254610245906001600160a01b031683610467565b92915050565b6102536103a5565b600380549091019055565b6102666103a5565b6001600160a01b0381166102e25760405162461bcd60e51b815260206004820152602660248201527f4f776e61626c653a206e6577206f776e657220697320746865207a65726f206160448201527f64647265737300000000000000000000000000000000000000000000000000006064820152608401610226565b6102eb816103ff565b50565b60006040517f3d602d80600a3d3981f3363d3d373d3d3d363d7300000000000000000000000081528360601b60148201527f5af43d82803e903d91602b57fd5bf300000000000000000000000000000000006028820152826037826000f59150506001600160a01b0381166102455760405162461bcd60e51b815260206004820152601760248201527f455243313136373a2063726561746532206661696c65640000000000000000006044820152606401610226565b6000546001600160a01b031633146101cd5760405162461bcd60e51b815260206004820181905260248201527f4f776e61626c653a2063616c6c6572206973206e6f7420746865206f776e65726044820152606401610226565b600080546001600160a01b038381167fffffffffffffffffffffffff0000000000000000000000000000000000000000831681178455604051919092169283917f8be0079c531659141344cd1fd0a4f28419497f9722a3daafe3b4186f6b6457e09190a35050565b60006104e38383306040517f3d602d80600a3d3981f3363d3d373d3d3d363d730000000000000000000000008152606093841b60148201527f5af43d82803e903d91602b57fd5bf3ff000000000000000000000000000000006028820152921b6038830152604c8201526037808220606c830152605591012090565b9392505050565b6000602082840312156104fc57600080fd5b5035919050565b60006020828403121561051557600080fd5b81356001600160a01b03811681146104e357600080fdfea264697066735822122089622bf364297f9138d69fe6b7914b911f43715946e6b7b02942203fdd59798064736f6c63430008090033",
  "linkReferences": {},
  "deployedLinkReferences": {}
}